:0200000480007A
:100000000000042005450080593500805D350080E2
:100010005D3500805D3500805D3500805D35008098
:1000200000000000000000000000000059350080C2
:100030005935008000000000593500805935008096
:10004000D528008085290080352A0080652A008017
:10005000752A0080852A0080952A0080A52A0080C4
:10006000B52A0080C52A0080E5280080F528008098
:100070000529008015290080252900803529008068
:100080004529008055290080652900807529008058
:1000900095290080A5290080B5290080C529008008
:1000A000D5290080E5290080F5290080052A0080F7
:1000B000152A0080252A0080452A0080552A0080C4
:1000C000D52A008059350080593500805935008087
:1000D00059350080593500805935008059350080E8
:1000E00059350080593500805935008059350080D8
:1000F00059350080593500805935008059350080C8
:10010000714200807D420080593500805935008061
:1001100059350080593500805935008059350080A7
:100120005935008059350080593500805935008097
:100130005935008059350080593500805935008087
:100140005935008059350080593500805935008077
:100150005935008059350080593500805935008067
:100160005935008059350080593500805935008057
:100170005935008059350080593500805935008047
:100180005935008059350080593500805935008037
:100190005935008059350080593500805935008027
:1001A0005935008059350080593500805935008017
:1001B0005935008059350080593500805935008007
:1001C00059350080593500805935008059350080F7
:1001D000593500805935008025450080F145008063
:1001E00059350080593500805935008059350080D7
:1001F00059350080593500805935008059350080C7
:1002000059350080593500805935008059350080B6
:1002100059350080593500805935008059350080A6
:100220005935008059350080593500805935008096
:100230005935008059350080593500805935008086
:100240005935008059350080593500805935008076
:1002500095350080693700807537008081370080D0
:100260005935008059350080593500805935008056
:1002700059350080FD380080E93A0080F53A008069
:10028000013B0080B94400809D440080714400809F
:100290005935008059350080593500805935008026
:1002A0005935008059350080593500805935008016
:1002B0005935008059350080593500805935008006
:1002C00059350080593500805935008059350080F6
:1004E000593500805935008059350080C926008073
:1004F00079270080292800805928008069280080F9
:10050000792800808928008099280080A928008007
:10051000B9280080D9260080E9260080F9260080CD
:1005200009270080192700802927008039270080AB
:10053000492700805927008069270080892700808B
:1005400099270080A9270080B9270080C92700804B
:10055000D9270080E9270080F9270080092800803A
:10056000192800803928008049280080C928008087
:100570005935008059350080593500805935008043
:100580005935008059350080593500805935008033
:100590005935008059350080593500805935008023
:1005A0005935008059350080593500805935008013
:1007C00000F002F800F078F814A696E8000CB244A5
:1007D000B344DA4501D100F06FF8BAE80F000FA674
:1007E00096E83000A5EB040504EB0607AAEB070426
:1007F000A7F101074FEA15154FEA3414A4F10104DB
:10080000AC4201D300F058F813F0010F18BFFB1AE7
:1008100043F0010300F001F8DBE71847406D0000EA
:10082000706D0000103A24BF78C878C1FAD852071A
:1008300024BF30C830C144BF04680C60704700005A
:10084000704700000023002400250026103A28BF2E
:1008500078C1FBD8520728BF30C148BF0B60704732
:10086000662906F00B81642900F0B480752900F038
:10087000B180782900F0EA80732900F05D860020BD
:1008800070471FB506F0BBF80748084901F05EF84D
:1008900001F03CF804000020002106F04DF8E06073
:1008A00000F060FF1FBD00000080002000C000209D
:1008B00010B500F0C0FF10BD03F060FFDFF80CD0F2
:1008C000FFF7DFFF04F0FCFD01F050FB0000042007
:1008D00003B4FFF7EDFF03BC01F0B8FB0FB404490C
:1008E00010B503AA029800F02BFE10BC5DF814FBB3
:1008F000181100200FB41CB50C0007AA009007D0F7
:100900004142A14202D32044401E01E04FF0FF309B
:10091000074B7B4469460190069800F0E0FD0020FB
:10092000002C01D0009908701CBC5DF814FB00007D
:10093000EF0B000070B5044685690068C10601D55B
:10094000302600E02026C00707D070BDD4E9012181
:1009500030469047206A401C20626D1EF6D570BD5F
:1009600070B5044685690078C00707D170BDD4E929
:10097000012120209047206A401C20626D1EF6D580
:1009800070BD70B50C460546012A05D02878800652
:1009900000D5EA69002302E0012305E05B1C9342D5
:1009A00002D2E05C0028F9D1A869E618C01AA86153
:1009B000286A184428622846FFF7BCFF04E0D5E9FE
:1009C000012114F8010B9047B442F8D32846FFF7F1
:1009D000C7FF70BD2DE9F041064600241068752957
:1009E000314616A510D0AFF30080002802DA40424D
:1009F00013A507E031688A0701D512A502E049076F
:100A000004D511A5012401E0AFF3008000210A22E2
:100A100006F1240709E0B0FBF2FCB0FBF2F302FBA5
:100A20001C00303078541846491C0028F3D1234666
:100A30002A463046BDE8F04100F0E4BA000000006C
:100A40002D0000002B0000002000000070B50446BF
:100A50000D4621461068AFF300802188090502D5B4
:100A60000F4A7A4402E00E4A7A440E32002104F121
:100A7000240305E000F00F060009965D5E54491C52
:100A80000028F7D120780023000704D5702D02D06C
:100A900009B1022311322046BDE8704000F0B2BA1D
:100AA0001A6000002DE9F05F894604464FF0000A05
:100AB000DFF874B1FB44C0F820A02046E168884705
:100AC000002874D0252806D0D4E901219047206A57
:100AD000401C2062F1E700265F462046E168884717
:100AE0002028054607DB312D05D2781910F8200C97
:100AF00008B10643F1E7B00701D526F00406C4F8B3
:100B00001CA00027C4F818A02A2D09D0284605F0FB
:100B1000FEFE38B304EB8708303DC8F8185019E0E2
:100B200059F8041B204604EB87029161E16888476D
:100B3000012F054618D1E069002820DA26F02006AA
:100B40001DE0D8F8180000EB800005EB40003038BD
:100B5000C8F818002046E1688847054605F0D7FE2A
:100B60000028EED1012F0AD02E2D08D12046E168B1
:100B700088477F1C0546022F46F02006C4DBA0698B
:100B8000002803DA404246F00106A061F00701D0D8
:100B900026F010066C2D0BD0682D09D04C2D39D0C5
:100BA0006A2D35D0742D35D07A2D33D016E038E04B
:100BB000E1682F4620468847B842054609D16C2F88
:100BC00026D04FF48060E1680643204688470546FA
:100BD00004E06C2F1AD04FF4807006430DB3A5F1DA
:100BE0004100192802D8203546F400664A462946B5
:100BF000204626604E46FFF733FE80B101280BD019
:100C0000F61D26F0070000F1080956E74020E4E74A
:100C10008020D8E70020D6E706F104094DE72846F2
:100C200052E7206ABDE8F09FF05F000070B504460F
:100C3000C068810713D0800601D5A56A04E0A169C8
:100C4000606808442169451A204600F047FD0022EB
:100C500006462946204600F085FC304670BD00203F
:100C600070BD70B510B1BDE87040DFE70025074CDE
:100C70006E1E07E02046FFF7D9FF00B13546206D14
:100C800020F00104002CF5D1284670BDC4100020CE
:100C9000014905F043BE00001811002010B50446BC
:100CA00003E005F03BFE401C09D014F8010B054998
:100CB0000028F6D1BDE810400A2005F02FBE4FF005
:100CC000FF3010BD181100202DE9F0410C461646EA
:100CD000070047D0104600F06FF82078611C6128AB
:100CE0000AD0722802D077283CD102E001250024E6
:100CF00005E00225042402E0082448F2020511F868
:100D0000010B2B2806D0622809D011F8010C742899
:100D10000AD00BE045F0030544F00204EFE745F08C
:100D2000040544F00104EAE744F010043846214683
:100D300000F0D4F8411C15D00021316171604FF4EE
:100D40000071F560F1617061200704D53046022220
:100D5000002100F007FC306D40F0010030653046A6
:100D6000BDE8F0810020FBE72DE9F0410D46064685
:100D7000104C206DC10704D0410804D020F00104BC
:100D8000F7E722460EE0542000F0DBF807000ED013
:100D9000206D47F00101084354212065384600F0DA
:100DA00076F83A4629463046BDE8F0418CE7002007
:100DB000D6E70000C41000202DE9F04704464FF0AC
:100DC000FF380026C568D4E90497A80718D0204644
:100DD00000F084FC384600F08BF8002800DA464624
:100DE000280502D5484600F0DBF84C21204600F0EB
:100DF0004EF8206D20F0010020653046BDE8F087F8
:100E00004046FBE7032A40F2308010F0030C00F06C
:100E1000158011F8013BBCF1020F624498BF11F834
:100E200001CB00F8013B38BF11F8013BA2F10402ED
:100E300098BF00F801CB38BF00F8013B11F0030365
:100E400000F02C85083AC0F0088051F8043B083ABD
:100E500051F804CBA0E80810F5E7121D5CBF51F86B
:100E6000043B40F8043BAFF30080D20724BF11F8E5
:100E7000013B11F801CB48BF11F8012B24BF00F84A
:100E8000013B00F801CB48BF00F8012B70474FF041
:100E9000000200B5134694469646203922BFA0E8CA
:100EA0000C50A0E80C50B1F12001BFF4F7AF0907D6
:100EB00028BFA0E80C5048BF0CC05DF804EB8900C7
:100EC00028BF40F8042B08BF704748BF20F8022B0A
:100ED00011F0804F18BF00F8012B70470EB5CDE917
:100EE000000100F09FFF029069460120ABBE0EBDDD
:100EF00008B5694600900220ABBE08BD1FB58DE85D
:100F0000070069460520ABBE04B010BD1FB58DE8D3
:100F10000F0069460620ABBEF6E708B569460090AB
:100F20000920ABBE08BD1CB5CDE9000169460A2009
:100F3000ABBE1CBD704708B5694600900C20ABBE27
:100F400008BD70B5064600F0DDFC056806F10B0033
:100F500020F00704B4429CBF002070BD2B466A6895
:100F6000BAB11068A04210D304F1080188423CBF16
:100F70005068586007D35168101941601168091B07
:100F8000016058601460101D70BD13465268002A3D
:100F9000E7D12146284600F0C5FC0028DED170BD0F
:100FA00070B50446051F00F0ADFC0068002C14BFAE
:100FB000446870BD002C18BFAC423CBF204664683A
:100FC000F8D301680A18AA4218BF456003D12A68FD
:100FD00005461144016028684119A1421CBF6C609C
:100FE00070BD6168696021680844286070BD10B5F3
:100FF00000F090FC006810BD10B5044600F08AFCBB
:10100000046010BD2DE9F0470D469946924604460E
:1010100000F124080168880604D5E06921F0100178
:10102000216000E00120A84201DD471B00E000270D
:10103000A1697A1902EB0900081AA0612078C0069C
:1010400002D42046FFF776FC002608E0D4E901210F
:101050001AF806009047206A401C761C20624E4514
:10106000F4DB2078C0060AD52046FFF763FC06E0D3
:10107000D4E9012130209047206A401C2062381EAC
:10108000A7F10107F4DC07E0D4E9012118F8050015
:101090009047206A401C2062281EA5F10105F3DC60
:1010A0002046FFF75DFC2078000602D50220BDE84F
:1010B000F0870120FBE72DE9FF4F0C461E464FF05D
:1010C000FF378BB0D2E90001DDF860800A908A46D4
:1010D000C1F30A5505B93D46002108464FF000000E
:1010E000BAF1000F00F4400005DA00EB80004FF485
:1010F000400101EA50004FEA9059B9F1010F00DDBB
:10110000B9460A9850EA4A000ED044F61050A5F2AB
:10111000FF3545432F14B8F1000F1ED07542291E2C
:101120001EDDC9F100021CE0B8F1010F4FF0000014
:1011300001D0302103E0F24305E02154401CB042CD
:10114000FBDB30460022002121540B99C1F80880B6
:10115000C1E900200FB0BDE8F08FBD1B6D1CDEE7BC
:101160004A4600DA694206A800F0AAFC06AB93E8FA
:10117000070003AB83E8070050460A9904F085FF97
:101180008DE80700A0F500501F3800900398002D4F
:101190000ADD42F21F014A460844002303A90390D6
:1011A000684605F0EFF909E0A0F500504A461F38FF
:1011B000002303A90390684605F0F9F98DE80700BC
:1011C0000004000C03D04FF0FF30410800E010464F
:1011D000B8F1000F03D00022009215461EE0751EE4
:1011E00005D400F0E8FB303262556D1EF9D5B346E8
:1011F0000122084302D000227F1C04E0207830281E
:1012000001D100227F1E002A099784D01DE0112DF4
:1012100007DA00F0D0FB303262556D1C50EA010253
:10122000F5D1084302D00098C8B10EE00021681E35
:1012300005E0235C625C63542254401E491C8142D9
:10124000F7DBAB46A81B401E0990002004F80B00FA
:101250000B98099AC0F80880C0E9002B7AE711269C
:101260004FF0000857E72DE9F04F88460446D21D9D
:1012700022F0070191B0D1E90001CDE90A0105F0A2
:10128000CDFA02460B98C00F01D02D2007E0206850
:10129000810701D52B2002E0202101EAC000032AAA
:1012A000099001D0072A05DB03464146204600F09D
:1012B000C7FB0BE12078800601D5E06900E006203D
:1012C000B8F1650F814606D0B8F1660F18D0B8F1B5
:1012D000670F70D131E00020B9F1110F009001DBF0
:1012E000112301E009F101030AAA01A90CA8FFF7E3
:1012F000E2FEDDE90C70002609F10105834647E0B6
:1013000001204B4600904FF000470AAA01A90CA803
:10131000FFF7D1FEDDE90DB00C995D46002610B94E
:1013200009F101000D18B9EB050003D4C0F1FF3637
:1013300009F10105A5EB09002BE0B9F1010F01DA74
:101340004FF001090020B9F1110F0090484601DD6E
:10135000112300E003460AAA01A90CA8FFF7ABFE7F
:10136000DDE90C704D4600268346207800070AD43C
:10137000AB4500DA5D4601A8012D04DD411911F8E5
:10138000011C302907D04F4502DA17F1040F04DAA7
:10139000012082460FE06D1EEEE7002F02DCED1B00
:1013A0003E4403E0781CA84200DD7D1CB81B00F120
:1013B000010A4FF000472078000703D4AA4501DB5B
:1013C0004FF0FF3A0021B7F1004F0DF143088DF8BF
:1013D000431024D002202B23002F01DA7F422D233B
:1013E0000A21021EA0F1010000DC5FB197FBF1FCB5
:1013F00097FBF1F201FB1C7C17460CF1300C08F84E
:1014000001CDEEE7A8F1010003702188090501D59F
:10141000452100E06521A0F1010800F8011C0998B0
:101420000FA9A1EB0807FF1D00B10120411901EB35
:10143000EA70A1693844081A401EA0612078C006ED
:1014400002D42046FFF776FA099828B1D4E90121A1
:101450009047206A401C20622078C00622D5204692
:10146000FFF768FA1EE0002E04DBB34502DD01A899
:10147000805D00E03020D4E901219047206A401CC3
:101480002062761CAAF101005FEA000A0AD100F08E
:101490003DFAC0680168405CD4E901219047206AA8
:1014A000401C2062281EA5F10105DCDC07E0D4E920
:1014B000012118F8010B9047206A401C2062381E59
:1014C000A7F10107F3DC2046FFF74AFA032011B029
:1014D00041E6000001694A1C02610878704700B5C6
:1014E0008FB0CDE901310021059105497944CDE95D
:1014F000031011466846FFF7D5FA0FB000BD000093
:10150000E5FFFFFFD1E900239A4202D2531C0B6092
:101510001070704710B5436913B1AFF3008001E05C
:10152000FFF72FFA012010BD127800F124010A7094
:1015300000224A700122EDE711684FF0FF32E9E71F
:10154000074B70B50D467B44FFF7C9FF044628469C
:1015500000F028FB10B14FF0FF3070BD204670BD89
:10156000D35300002DE9F041044616460D46476965
:10157000007B80072ED03846FFF7CFFC50BB3EB330
:10158000012E02D0022E25D104E0204600F0FFFB00
:1015900005441DE03846FFF7CEFCE168002841F025
:1015A0001001E16005DA204600F058F80120BDE89E
:1015B000F081C9030BD56268E16A914200D81146F7
:1015C000A26911442269891A814200DD0846054456
:1015D000002D01DA0220EAE7E16A6068E2688142F0
:1015E00006D29103E06203D522F4003141F01002EB
:1015F000A6690027AE4213DCE16A814201D90B469D
:1016000000E0034603EB060C2369ACEB030CAC458E
:1016100006DD814201D98C4600E084469C4505D117
:10162000A760276042F02000A5620DE0AD1BE669CF
:10163000AE1B8142A66000D90846C01A281A206055
:101640005819606022F0200003490840E060002043
:1016500084F84870ABE70000BFCFD7FFC16821F422
:10166000001141F08001C16000218160016070477C
:101670002DE9F74F15460C464FF0FF3B3848D76829
:10168000D2F814A0074209D05046A969FFF74BFCD5
:10169000002819DB3248C0430740EF604FF0004993
:1016A0006FF000484C4501D3464600E026460099BD
:1016B0003B4650463246FFF721FCA96920F0004224
:1016C000B21A1144A96128B12846FFF7C7FF58464E
:1016D000BDE8FE8FA41BE5D10020F9E770B50446F4
:1016E0000569C06A6168884200D80846E16821F44B
:1016F0002011E160C90312D5A84208D02246411B3F
:101700002846FFF7B5FF10B14FF0FF3070BD002045
:10171000E562C4E90150E06820F48030E060002018
:1017200070BD10B50446C06820F02000E060A16ADA
:10173000A06988420DD02046FFF7D0FFE06820F472
:10174000405040F01000E060A06AA0612069E062B3
:10175000606044F24001E0688843E06010BD000032
:101760001000020010B542485421FFF790FB414899
:101770005421FFF78CFB40485421FFF788FB3F4979
:101780003B483C4A3F4B08603D490A603A49196072
:10179000531C0365481C1065012008653B48344A0A
:1017A00039A17844FFF790FA20B9384878440A38CC
:1017B00000F031FB37482F4A35A17844FFF784FA0F
:1017C00020B9344878440A3800F025FB32482A4AC8
:1017D0002FA17844FFF778FA20B92F4878440A38C7
:1017E00000F019FB40232248DC000021224600F0D3
:1017F000EFFA20B125487844543800F00CFB1D481E
:1018000022464023002100F0E3FA20B12148784429
:10181000543800F000FB184822461023002100F045
:10182000D7FA002806D01C487844BDE81040563846
:1018300000F0F1BA10BD104870B5006D20F0010441
:101840000B48FFF7B9FA0B48FFF7B6FA0A48FFF75B
:10185000B3FA09E0206D20F001052046FFF7ACFA4D
:101860002046FFF79DFB2C46002CF3D170BD0000F5
:10187000C4100020181100206C110020000000206E
:101880000400002008000020720000001353000034
:1018900077000000FF520000EB52000010B5203A24
:1018A000C0F00B80B1E81850A0E81850B1E818500B
:1018B000A0E81850203ABFF4F5AF5FEA027C24BFDD
:1018C000B1E81850A0E8185044BF18C918C0BDE8C6
:1018D00010405FEA827C24BF51F8043B40F8043B8F
:1018E00008BF7047D20728BF31F8023B48BF11F844
:1018F000012B28BF20F8023B48BF00F8012B70479E
:101900007047000000487047C81100200048704729
:10191000E011002000487047C01100207047704758
:101920007047704738B504460A4600206946AFF351
:101930000080002808BF38BD02460099204600F00C
:1019400090FA012038BD012000F038BBF8B5AFF3A4
:101950000080054600200C460C2000BF0646A81952
:10196000A0420DD9324669460020AFF3008007003F
:1019700008BF00F023FB0098A04218BF0546C41919
:10198000FFF7C0FF05600746F01D20F0070046196D
:10199000284600F00AF8B44208BFF8BDA21B314641
:1019A0003868BDE8F84000F05CBA00210160416091
:1019B00070470C20704730B5B0F10A0271F1000396
:1019C0004FEA900E4EEA817EB0EB0E0061EB910182
:1019D0004FEA101E4EEA017E10EB0E0041EB111192
:1019E0004FEA102E4EEA016E10EB0E0041EB112172
:1019F0004FEA104E4EEA014E10EB0E0041EB114142
:101A0000401841F100014FEAD00040EA41704FEA2E
:101A1000D1014FEA810444EA907410EB800544EB55
:101A200001046D1944EB0404521BA3414FF0000361
:101A300048BF0A3200D530BD401C41F1000130BD25
:101A40002DE9F0411F46044603260168072A01F4E8
:101A5000006004DB08B116A505E016A503E008B197
:101A600015A500E015A521F010002060A069C01E9A
:101A7000A0610FB1401EA0612046FEF75BFF4FB191
:101A8000D4E9012138469047206A401C2062C01CDE
:101A9000206206E0206AFAE7D4E9012115F8010B7B
:101AA0009047761EF8D22046FEF75AFFBDE8F08137
:101AB0004E414E006E616E00494E4600696E6600F2
:101AC0002DE9F047814616468AB0354878440DC85E
:101AD0008DE80D0032487844801C03AC0DC884E8C2
:101AE0000D0041F69B300844372190FBF1F290FB4A
:101AF000F1F5A5F1800501FB12041B3C02D56442FF
:101B0000012000E00020DFF898A080460027FA447A
:101B1000AAF1BE0A0EE0E0070AD03246684607EB9B
:101B2000470101230AEB810104F041FD8DE8070024
:101B300064107F1C002CEED1194F7F44AE3F19E09A
:101B4000E80715D007EB04100DF1180A90E80E0015
:101B50008AE80E00C068F04201D198190890324618
:101B6000012306A903A804F022FD03AB83E80700C4
:101B70006D10641C002DE3D14FF00103324669461D
:101B8000B8F1000F03A802D004F0FCFC01E004F05F
:101B90000EFDC9E90001C9F808200AB0BDE8F087C8
:101BA00074500000007B00F0800070472DE9F05F6A
:101BB000054617460C46C86820F4201040F4800003
:101BC000C860800602D50846FFF7ABFDE06841F229
:101BD00082014FF0FF3A0140022903D02046FFF76F
:101BE0003DFDB9E000F42041B1F5004F0FD1C00335
:101BF00006D56168E06A884200D80846606006E061
:101C00002069E06260606069FFF795F9A061A068F3
:101C10000022EEB200280DDAE1688B050AD4C04339
:101C2000A06041F490302260E0606068411C616017
:101C30000670AAE0E0689146226040F40050E0603F
:101C4000206978BB6069FFF768F904F124054FF05B
:101C50000108A8B1A08910F4407F08D0E069FFF71F
:101C600070F9206118B1E06840F4006017E0C4F832
:101C70001C802561E06820F4407040F480600EE034
:101C8000E069FFF75EF900282061F0D0E06840F4D9
:101C9000006010F4407FE06002D140F48070E060AA
:101CA00020696060E06825696FF0010BC1051ED5F1
:101CB0006168E06A884200D80846411B04D0224689
:101CC0002846FFF7D5FCE8BB1FB1E562C4E901591E
:101CD00059E0681CE0626060E069401EA060E06856
:101CE00040F48030E06030462E70BDE8F09F17B1C0
:101CF00000F480320AE06068411C61600670E068B0
:101D00000A2E40F48030E06006D00022E16A60686C
:101D1000814203D90B4602E00122F7E70346B4F8FB
:101D20000CC05B1B5FEA4C5C04D4D4F81CC09C451F
:101D300000DD02B3814200D80146002BA1EB000870
:101D4000E56200E008E0C4E9015907DD22461946D2
:101D50002846FFF78DFC08B15046C6E7B8F1000FE2
:101D600009D0A169E5626560A1EB0800A061E068A7
:101D700040F01000E06047B16168A069E562491B6E
:101D800008446560A0615846AFE73046ADE710B53E
:101D90000146C268900703D0900607D5886A0AE01A
:101DA000FFF7B8FD01210160881E10BD8B694868EE
:101DB00018440B69C01A91F848301BB191F84910CA
:101DC000401A10BD1103FCD50028FADD401E10BDDD
:101DD00070B5C468A50713D0650211D4B2F5807F31
:101DE00009D0B2F5007F06D0B2F5806F08D101238B
:101DF00000F1240106E05D1E6FF07F46B54201D37D
:101E0000012070BD0161C361416024F47061114320
:101E1000C160002070BD10B500F0B6F8BDE81040FC
:101E200000F0ADB810B5431C02E010F8011B71B111
:101E30008107FAD14FF0013202C88C1A8C4314EAA0
:101E4000C211F9D0C01A0A0603D0C01E10BDC01AB4
:101E500010BD0A0401D0801E10BD0902FCD0401E36
:101E600010BD034640688C46002818BF88423CBF1E
:101E700003464068F8D318681844884207D00CF12C
:101E8000030020F00700001D411A521A0146081DE8
:101E90000A60FFF785B82DE9FF5F8B461C46824636
:101EA000029D05FB0BF5E5B1D4F8088057464FF0CD
:101EB0000009B8F1000044DCE069A84227D2B9F17A
:101EC000000F24D0224629463846A669FFF7D0FBEA
:101ED00058B1C4F80880A069801B3844A0EB0A01FF
:101EE00029E0002004B0BDE8F09FE16811F4C06F64
:101EF00001D0002008E022696068801AE269101AA7
:101F0000C903A06001D44042A0600298EAE7A84259
:101F100001D2012200E0002221463878FFF746FE78
:101F2000411C06D0D4F80880002807DB6D1E7F1CFA
:101F300017E0A7EB0A01B1FBFBF0D3E74FF0010973
:101F40000FE0A842064600D92E4639463246606860
:101F5000FEF758FF6068AD1BA8EB06083044374415
:101F60006060002DA5D1C4F80880CEE710B5044606
:101F7000AFF300802046BDE81040FEF7A9BC002862
:101F800001D000F063B8704710B5014602A000F020
:101F900063F8012010BD0000534947525452454494
:101FA0003A2052656469726563743A2063616E27F2
:101FB00074206F70656E3A200000000010B500F0CC
:101FC00065F8BDE81040FFF7DABF00000000000030
:101FD00030B44FF0013C50F8042B51F8043BCCFADC
:101FE00052F4D51A20D1FCB950F8042B51F8043B17
:101FF000CCFA52F4D51A17D1B4B950F8042B51F8D1
:10200000043BCCFA52F4D51A0ED16CB950F8042B1B
:1020100051F8043BCCFA52F4D51A05D1002CDAD091
:1020200030BC4FF00000704729BAB1FA81F111F0CD
:102030001801D1F120008440F2D1CA40CB4012F007
:10204000FF0213F0FF0330BCD01A7047014918207B
:10205000ABBEFEE72600020070B505460C460A201E
:1020600000E06D1C00F03AF835B128780028F8D16E
:1020700002E0641C00F032F814B120780028F8D196
:10208000BDE870400A2000F029B8000010B5012812
:1020900005D0002103A0FFF7DFFF012010BD09A13B
:1020A000F8E7000053494752544D454D3A204F75CB
:1020B00074206F662068656170206D656D6F727940
:1020C000000000003A2048656170206D656D6F72F8
:1020D0007920636F727275707465640008B5694623
:1020E0008DF800000320ABBE08BD0000B0B5C3688A
:1020F000DB0702D0C3689B0702D44FF0FF30B0BDAE
:102100000139052984BF6FF00300B0BDDFE811F08D
:102110000600AA00520085004600FB00012104468B
:102120008166C2F3802341684365084611461A461A
:1021300002F0AAFF606821460022C266D0F89C2007
:10214000D2070CD0D0F89C20D2071CBFD0F89C201E
:102150005FEAC27203D0D0F89C20D207EED10268A9
:10216000012363F342020260C366D0F89C20D207C9
:102170000CD1D0F89C20D20704BFD0F89C205FEA95
:10218000C27203D1D0F89C20D207EED0002081F893
:102190006C00CA6842F00802CA60B0BD11064EBFAA
:1021A00002F08F0190F86D1001F07F0180F86D1042
:1021B0000020B0BD41680022CA66D1F89C20D20739
:1021C0000CD0D1F89C20D2071CBFD1F89C205FEA2C
:1021D000C27203D0D1F89C20D207EED10A6C002243
:1021E00042640264C263426382630120C866D1F81C
:1021F0009C00C00740F0BC80D1F89C00C00704BF21
:10220000D1F89C005FEAC07040F0B280D1F89C0029
:10221000C0074FF00000EAD0B0BD416890F86C20D4
:102220000B6B6FF41875012A08BF6FF4167503EA7B
:1022300005024FF6A853CFF6FF730A6303F150026D
:102240000B6B04BF4FF6A852CFF6FF721A400A6319
:102250000021816141620164816821F00101816096
:102260000020B0BD511E054603298FBFFC2441A3A9
:1022700053F8214082664268C16D104602F05CFB53
:10228000296D44F6D352C1F26202A1FB02136868C1
:1022900095F86820990902F0C3FC69682846002275
:1022A000CA66D1F89C20D2070CD0D1F89C20D20766
:1022B0001CBFD1F89C205FEAC27203D0D1F89C20E9
:1022C000D207EED10A6822F0060222430A600122F8
:1022D000CA66D1F89C20D2070CD1D1F89C20D20735
:1022E00004BFD1F89C205FEAC27203D1D1F89C20D0
:1022F000D207EED0012180F86C10C16841F00401D2
:10230000C1600020B0BD90F86C1001291CBF6FF0B7
:102310000300B0BD41680020C866D1F89C00C0072A
:102320000CD0D1F89C00C0071CBFD1F89C005FEA1C
:10233000C07003D0D1F89C00C007EED102F00700B6
:10234000C8600120C86606E0D1F89C00C0074FF0C5
:10235000000018BFB0BDD1F89C00C00708D1D1F86B
:102360009C00C00704BFD1F89C005FEAC070EBD0AE
:102370000020B0BD020000000400000004000000C6
:10238000060000000120704740F20420C0F208104F
:102390007047000010B5C468E40702D14FF0FF3069
:1023A00010BDC468DDF808E014F002046FF0030CFF
:1023B00008BF4FF0FF3CBEF1000F0AD14CB1002422
:1023C0006FF0040CB4EBD12F03D1002A18BF002BFF
:1023D00001D1604610BDC4686407DFD5D0F808C0DD
:1023E0005FEACC741CBF6FF0010010BD4CF0070415
:1023F00024F03004C0E908238460002302248362AF
:102400000363C362836304644468246C90F96D4081
:10241000B4F1FF3F07DC04F00F04C0E905240122FA
:10242000C36180F84C20044601F038FA606840F23D
:1024300057224FF0000C016B11430163604610BD41
:102440002DE9F041C768FF0703D14FF0FF30BDE829
:10245000F081C768069E17F002056FF0030C08BFF5
:102460004FF0FF3C56B94DB100276FF0040CB7EBAD
:10247000D12F03D1002A18BF002B02D16046BDE83E
:10248000F081C7687F07E0D58668F7071CBF6FF04B
:102490000100BDE8F08146F003070D4627F0340740
:1024A00087600027C7610763476301270764C76D1B
:1024B0006FF39F25BD4213D04FEA912C0646C0F81A
:1024C00054C01746D0F804E06246D0F840801C465D
:1024D0007046434602F08EFD3A4630462346F56587
:1024E00041684FF0000C0F6CC0E90523086B40F405
:1024F000167008636046BDE8F081000010B5002842
:102500007CD0012804BF6FF0030010BD022840F00A
:10251000D880C868C00704BF4FF0FF3010BDC8683E
:10252000800700F1CE80086F042807D147F2100021
:10253000C4F20030026842F400520260486800228F
:10254000C266D0F89C20D2070CD0D0F89C20D207CD
:102550001CBFD0F89C205FEAC27203D0D0F89C2048
:10256000D207EED1026B40F257234EF2802C22F4B8
:1025700016720263026BCEF2000C9A4340F20723FC
:102580000263026B22F418720263026B9A430263C5
:102590004A6E002A07D402F01F0301209840520916
:1025A0004CF822004A6E086E4EF6145E0CEB0204E4
:1025B00004F5C07402F00F03CEF2000E002A48BFEB
:1025C00003EB0E0420704A6E002A0CD402F01F00A8
:1025D000012352090CEB820203FA00F04FF68063EC
:1025E000CFF6FF73D050486891F86E20C26391F81F
:1025F0006F208263C86840F0020061E0C86880070D
:102600005FD54B6891F86C20486ED3F830C06FF4FA
:102610001874012A08BF6FF416740CEA04024FF60E
:10262000A854CFF6FF741A6304F150021C6B04BF68
:102630004FF6A852CFF6FF72002802EA04021A638E
:102640001CD44EF2802C00F01F02CEF2000C0123AD
:1026500040090CEB800003FA02F46FF0FF02845093
:10266000BFF34F8FBFF36F8F486E00285FBF00F03E
:102670001F0203FA02F240094CF8202048680022A9
:10268000C266D0F89C20D2070CD0D0F89C20D2078C
:102690001CBFD0F89C205FEAC27203D0D0F89C2007
:1026A000D207EED1086F042807D147F21000C4F218
:1026B0000030026822F400520260C86820F0020074
:1026C000C860002010BD000040F20C010020C2F2E2
:1026D000000100F07FBC000040F20C010A20C2F2B1
:1026E000000100F077BC000040F20C010B20C2F2A8
:1026F000000100F06FBC000040F20C010C20C2F29F
:10270000000100F067BC000040F20C010D20C2F295
:10271000000100F05FBC000040F20C010E20C2F28C
:10272000000100F057BC000040F20C010F20C2F283
:10273000000100F04FBC000040F20C011020C2F27A
:10274000000100F047BC000040F20C011120C2F271
:10275000000100F03FBC000040F20C011220C2F268
:10276000000100F037BC000040F20C011320C2F25F
:10277000000100F02FBC000040F20C010120C2F269
:10278000000100F027BC000040F20C011420C2F24E
:10279000000100F01FBC000040F20C011520C2F245
:1027A000000100F017BC000040F20C011620C2F23C
:1027B000000100F00FBC000040F20C011720C2F233
:1027C000000100F007BC000040F20C011820C2F22A
:1027D000000100F0FFBB000040F20C011920C2F222
:1027E000000100F0F7BB000040F20C011A20C2F219
:1027F000000100F0EFBB000040F20C011B20C2F210
:10280000000100F0E7BB000040F20C011C20C2F206
:10281000000100F0DFBB000040F20C011D20C2F2FD
:10282000000100F0D7BB000040F20C010220C2F210
:10283000000100F0CFBB000040F20C011E20C2F2EC
:10284000000100F0C7BB000040F20C011F20C2F2E3
:10285000000100F0BFBB000040F20C010320C2F2F7
:10286000000100F0B7BB000040F20C010420C2F2EE
:10287000000100F0AFBB000040F20C010520C2F2E5
:10288000000100F0A7BB000040F20C010620C2F2DC
:10289000000100F09FBB000040F20C010720C2F2D3
:1028A000000100F097BB000040F20C010820C2F2CA
:1028B000000100F08FBB000040F20C010920C2F2C1
:1028C000000100F087BB000040F20C00C2F20000E3
:1028D00000F006B940F24C610020C2F2000100F0A5
:1028E00079BB000040F24C610A20C2F2000100F006
:1028F00071BB000040F24C610B20C2F2000100F0FD
:1029000069BB000040F24C610C20C2F2000100F0F3
:1029100061BB000040F24C610D20C2F2000100F0EA
:1029200059BB000040F24C610E20C2F2000100F0E1
:1029300051BB000040F24C610F20C2F2000100F0D8
:1029400049BB000040F24C611020C2F2000100F0CF
:1029500041BB000040F24C611120C2F2000100F0C6
:1029600039BB000040F24C611220C2F2000100F0BD
:1029700031BB000040F24C611320C2F2000100F0B4
:1029800029BB000040F24C610120C2F2000100F0BE
:1029900021BB000040F24C611420C2F2000100F0A3
:1029A00019BB000040F24C611520C2F2000100F09A
:1029B00011BB000040F24C611620C2F2000100F091
:1029C00009BB000040F24C611720C2F2000100F088
:1029D00001BB000040F24C611820C2F2000100F07F
:1029E000F9BA000040F24C611920C2F2000100F077
:1029F000F1BA000040F24C611A20C2F2000100F06E
:102A0000E9BA000040F24C611B20C2F2000100F064
:102A1000E1BA000040F24C611C20C2F2000100F05B
:102A2000D9BA000040F24C611D20C2F2000100F052
:102A3000D1BA000040F24C610220C2F2000100F065
:102A4000C9BA000040F24C611E20C2F2000100F041
:102A5000C1BA000040F24C611F20C2F2000100F038
:102A6000B9BA000040F24C610320C2F2000100F04C
:102A7000B1BA000040F24C610420C2F2000100F043
:102A8000A9BA000040F24C610520C2F2000100F03A
:102A9000A1BA000040F24C610620C2F2000100F031
:102AA00099BA000040F24C610720C2F2000100F028
:102AB00091BA000040F24C610820C2F2000100F01F
:102AC00089BA000040F24C610920C2F2000100F016
:102AD00081BA000040F24C60C2F20000AFF3008007
:102AE0002DE9F04F89B00146009051F8840B4EF665
:102AF0007474CEF20004069100210891006BC007A7
:102B000040F03E81009D4FF00008281D019007E035
:102B100008F10108B8F1080F04BF09B0BDE8F08F53
:102B20002868406B20FA08F0C007F1D008A82946B1
:102B3000CDF8208000F088FB0698B02108FB010149
:102B400051F8080F40F00200022811F8032C40F061
:102B50000C81086905918F680021CFF6FC7106464B
:102B600001400492B1F1B04F08BF06F12846B1F11F
:102B7000B14F08BFA0F162563046394601F0B2FCB1
:102B8000002800F0EB80B7F5003F2FDADDE90421E3
:102B9000009D012FC0F2E98006F01F00BFF34F8FA8
:102BA000384400BF212844F8186CC0F0D780413861
:102BB00006F1200110F1220F44F8181C00F2CE801B
:102BC0002038203110F1220F44F8181C00F2C68082
:102BD00001F1200201F1400644F8182CA0F1200276
:102BE00012F1210FA0F11F00DCD3B7E04FF6106106
:102BF0000020CFF6FF7160504FF60C60BFF34F8F8F
:102C0000CFF6FF702058C0F3C90BC0F34E330BF161
:102C1000010182044FEAD00C1A4601F003012ED4C0
:102C2000400B4FF47F5202EA4012DE4691B142EA75
:102C30008C700129ABF1010E20600BD042EA8E703E
:102C4000ABF1020E022920601EBF42EA8E702060A6
:102C5000ABF1030EBBF1030F10D342EA8E700EF1FD
:102C6000010500F1404280F0004700F1804600BFBE
:102C7000043D2060226027602660F9D15A1E002B97
:102C80006CD04FEA8C7AABF1010C4FEA8C70ABF14F
:102C9000020E07904FEA8E700390ABF10300029092
:102CA00005E000BFB9F1000FA2F1020256D043F6D1
:102CB000E07000EA4216584681B14AEA06002060F8
:102CC000604601290AD00798022940EA06002060E0
:102CD000704603D00398304320600298BBF1030F85
:102CE0000ED346EA8076013006F1404386F0004775
:102CF00006F1804504382660236027602560F9D1FD
:102D0000A2F1010943F6E07000EA4916584689B17C
:102D10004AEA06002060604601290BD00798022984
:102D200040EA06002060704604D0039830432060DB
:102D3000029800BFBBF1030FB4D346EA807601309E
:102D400006F1404386F0004706F1804504382660CE
:102D5000236027602560F9D1A4E700BFBFF34F8F40
:102D6000BFF36F8FDDE90421009D019850F8222008
:102D7000002A3FF4CDAE91F9181002209047C7E623
:102D800000984FF000090430019005E009F10109B5
:102D9000B9F1080F3FF4B6AE0698B02109FB010A5D
:102DA0005AF8080F40F0020002281AF8031C40F0FD
:102DB000068104910021DAF81000CFF6FC71DAF8F0
:102DC000086005460140B1F1B04F08BF05F1284544
:102DD000B1F1B14F08BFA0F162552846314601F06C
:102DE00081FB002800F0E680B6F5003F2CDA04995C
:102DF000012EC0F2E48005F01F00BFF34F8F304476
:102E0000212844F8185CC0F0D580413805F1200134
:102E100010F1220F44F8181C00F2CC802038203129
:102E200010F1220F44F8181C00F2C48001F12002B6
:102E300001F1400544F8182CA0F1200212F1210FF5
:102E4000A0F11F00DCD3B5E04FF610610020CFF6F3
:102E5000FF7160504FF60C60BFF34F8FCFF6FF70DD
:102E60002058C0F3C90BC0F34E330BF101018204AB
:102E70004FEAD00C1A4601F003012CD4400B4FF45A
:102E80007F5202EA40125D4691B142EA8C700129FC
:102E9000ABF1010520600BD042EA8570ABF1020571
:102EA000022920601EBF42EA85702060ABF1030555
:102EB000BBF1030F0ED342EA8570013500F14042A9
:102EC00080F0004700F18046043D206022602760CA
:102ED0002660F9D15A1E002B6CD0ABF1010E4FEADF
:102EE0008C7C4FEA8E700790ABF102000590800752
:102EF0000390ABF10300029005E000BFB8F1000FB2
:102F0000A2F1020256D043F6E07000EA421558469C
:102F100081B14CEA05002060704601290AD007986B
:102F2000022940EA05002060059803D00398284351
:102F300020600298BBF1030F0ED345EA8075013083
:102F400005F1404785F0004305F1804604382560CF
:102F5000276023602660F9D1A2F1010843F6E070F2
:102F600000EA4815584689B14CEA050020607046D1
:102F700001290BD00798022940EA05002060059836
:102F800004D0039828432060029800BFBBF1030FD0
:102F9000B4D345EA8075013005F1404785F0004320
:102FA00005F1804604382560276023602660F9D14A
:102FB000A4E700BFBFF34F8FBFF36F8F0499019851
:102FC00050F82120002A3FF4E1AE9AF918100220AF
:102FD0009047DBE62DE9F04F87B00A1892F80436E7
:102FE000B0220F6813FB021301228240FA6253F8E9
:102FF0008C2F42F00202022A40F01781CDE9030132
:1030000018699F68014606466FF311010593B1F1F7
:10301000B04F08BF06F12846B1F1B14F08BFA0F18B
:1030200062563046394601F05DFA002800F0F7801C
:10303000B7F5003F32DA03AB012F0BCBC0F2F580BE
:1030400006F01F014EF67470BFF34F8FCEF20000F2
:10305000394400BF212940F8186CC0F0E0804139A4
:1030600006F1200211F1220F40F8182C00F2D7804F
:103070002039203211F1220F40F8182C00F2CF80B5
:1030800002F1200302F1400640F8183CA1F12003B0
:1030900013F1210FA1F11F01DCD3C0E04EF67470D3
:1030A0004FF61061CEF200000022CFF6FF714250C1
:1030B0004FF60C61BFF34F8FCFF6FF714158C1F34C
:1030C000C905C1F34E3E6A1C8B044FEAD10C73460E
:1030D00002F0030B30D4490B4FF47F5202EA411344
:1030E000BBF1000F294613D043EA8C71BBF1010FED
:1030F0000160A5F101010BD043EA8171BBF1020F20
:103100000160A5F102011EBF43EA81710160E91E61
:10311000032D0FD343EA8173013103F1404483F05F
:10312000004603F1804700BF043903600460066075
:103130000760F9D1AEF10103BEF1000F6FD0A5F128
:10314000010AA5F1020E4FEA8A7143F6E078069172
:103150004FEA8E714FEA8C790291E91E019104E0E9
:10316000BCF1000FA3F1020359D008EA4314BBF1EC
:10317000000F294612D049EA040101605146BBF113
:10318000010F0BD00699BBF1020F41EA0401016067
:10319000714603D00299214301600199032D0FD399
:1031A00044EA8174013104F1404784F0004604F19F
:1031B000804200BF04390460076006600260F9D1F4
:1031C000A3F1010CBBF1000F08EA4C14294613D0FF
:1031D00049EA040101605146BBF1010F0CD0069988
:1031E000BBF1020F41EA04010160714604D002996B
:1031F00021430160019900BF032DB1D344EA8174DA
:10320000013104F1404784F0004604F1804200BFE0
:1032100004390460076006600260F9D1A0E7BFF3DB
:103220004F8FBFF36F8F03AB0BCB01EB8000426876
:10323000002A04BF07B0BDE8F08F93F918100120F1
:1032400007B0BDE8F04F104791F82C2692075CBFFD
:103250004FF0FF307047002804BF6FF00400704744
:103260000268082A84BF6FF0060070472DE9F04F0E
:1032700083B072B6B023056801F184000F68EAB22A
:1032800012FB030307F580765B7956F8324024077A
:1032900000F09080D7F8004DE40740F08D804FF0AB
:1032A000011465F30A240025C7F8084DC7F80C5D22
:1032B000C7F8045D56F832502D070CD056F832503E
:1032C0002D071CBF56F832505FEA057503D056F83B
:1032D00032502D07EED101263D6A06FA03F4A543CC
:1032E0003D62FC62D1F83416C9180ED401F01F03F8
:1032F0004EF2801706FA03F34909CEF2000747F8A9
:103300002130BFF34F8FBFF36F8FB02112FB01004D
:1033100050F8081F41F00201022940F017810169AD
:10332000856808460C466FF31100B0F1B04F08BF36
:1033300004F12844B0F1B14F08BFA1F16254204616
:10334000294601F0CFF8002800F0FC80B5F5003FD9
:1033500038DA012DC0F2FA8004F01F014EF67470C5
:10336000BFF34F8FCEF20000294400BF212940F85F
:10337000184CC0F0E780413904F1200211F1220F0E
:1033800040F8182C00F2DE802039203211F1220F93
:1033900040F8182C00F2D68002F1200302F140041C
:1033A00040F8183CA1F1200313F1210FA1F11F01F6
:1033B000DCD3C7E062B6CAE062B66FF0010003B0CA
:1033C000BDE8F08F4EF674704FF61061CEF200003B
:1033D0000022CFF6FF7142504EF28011BFF34F8FA3
:1033E000CEF20001D1F8001CC1F3C905C1F34E3E75
:1033F0006B1CCA088F0403F0030C734630D4490BCE
:103400004FF47F5303EA4113BCF1000F294613D058
:1034100043EA8271BCF1010F0160A5F101010BD0FB
:1034200043EA8171BCF1020F0160A5F102011EBFE8
:1034300043EA81710160E91E032D0FD343EA8173D2
:10344000013103F1404483F0004603F1804700BF9F
:1034500004390360046006600760F9D1AEF101032E
:10346000BEF1000F6ED0A5F10109A5F1020E4FEAE1
:10347000897143F6E07A02914FEA8E714FEA827BBE
:103480000191E91E009103E0002FA3F1020359D03E
:103490000AEA4317BCF1000F2E4613D04BEA07018E
:1034A0004E46BCF1010F01600CD002997646BCF18A
:1034B000020F41EA0701016004D00199394301601C
:1034C000009E00BF032D0FD347EA8671013601F13C
:1034D000404781F0004401F1804200BF043E01609A
:1034E000076004600260F9D15F1EBCF1000F0AEAB8
:1034F0004716294612D04BEA060101604946BCF145
:10350000010F0BD00299BCF1020F41EA06010160E4
:10351000714603D00199314301600099032DB3D363
:1035200046EA8176013106F1404886F0004406F112
:10353000804200BF04390660C0F800800460026069
:10354000F8D1A1E7BFF34F8FBFF36F8F62B60020B2
:1035500003B0BDE8F08F0000FEE70000FEE70000CA
:1035600041F2BC00C2F20000006870470A46014602
:1035700040F68C40C2F20000FEF7B8BD40F68C4029
:10358000C2F20000006B704740F68C40C2F20000AF
:103590008068704740F68C40C2F2000000F054B9D9
:1035A00010B540F68C44C2F20004E168C90714D19A
:1035B000A26D5021E165002102F07F026165A265E4
:1035C000E16361646163A16321742060FFF7C8FF58
:1035D0002065E06840F00100E060002010BD0000C0
:1035E00080B582B09C4613460A46014640F68C40A0
:1035F000CDF800C0C2F20000FEF7CCFE02B080BDE4
:1036000080B582B09C4613460A46014640F68C407F
:10361000CDF800C0C2F20000FEF712FF02B080BD7C
:1036200040F68C41C2F20001FEF768BF40F68C42C2
:10363000C2F20002D368DB0702D0D3689B0702D432
:103640004FF0FF307047844600286FF0040018BF29
:10365000002900D17047D0680007F1D59068C307F2
:103660001CBF6FF00100704780B540F005000423D7
:1036700020F0220090600020906210631364906339
:10368000D2F804E0DEF84030C2E908C1DEF83010BC
:1036900040F207221143CEF83010BDE88040704759
:1036A00040F68C42C2F20002D368DB0702D0D36836
:1036B0009B0702D44FF0FF307047844600286FF01C
:1036C000040018BF002900D17047D0680007F1D569
:1036D0009068C3071CBF6FF00100704780B540F0D1
:1036E0000100032320F0360090600020D0611063B9
:1036F00050631364D2F804E0DEF84030C2E905C13B
:10370000DEF8301041F41871CEF83010BDE880407A
:103710007047000040F68C41C2F20001C868C00743
:1037200004BF00207047C868800744BF4FF0FF30D7
:1037300070470020C1E90500C86108634863C1E91A
:1037400008008862C862886308744864C8630864B3
:103750008A68486522F037028A60C865CA6822F024
:103760000102CA607047000040F60050C2F200003B
:1037700000F06AB840F67450C2F2000000F064B87D
:1037800040F6E850C2F2000000F05EB810B5044602
:10379000806CC00721D1A06C800626D4A06CC00527
:1037A00027D4A06C400729D4A06C000729D4A06CB2
:1037B000C00629D4A06C400629D4A06C00062DD4E4
:1037C000A06C800731D4A06C800531D4A06C40057A
:1037D00036D521684FF480602DE0A068216820F084
:1037E0000100A060012088472AE021682020884746
:1037F00026E021684FF48070884721E0216804208A
:1038000019E02168082016E02168102013E0A06864
:10381000216840F01000A06040200CE0A068216802
:1038200040F02000A060802005E02168022002E036
:1038300021684FF400708847A06820F00100A06064
:103840000020A06410BD0000B0B590F86C100446D4
:10385000006C04F1100501290DD1012803D1606825
:10386000294601F0FDFA206C022811D16068294632
:1038700001F094F80CE0032803D16068294601F0B8
:1038800095FC206C042803D16068294601F032FCC5
:103890002046BDE8B040FFF779BF0000B0B5C26D6B
:1038A00021F48064944208BFB0BDC1F38022D0F8F7
:1038B00004C005464265036C604601F09BFBEC6565
:1038C000B0BD000040F67863C2F2000300F01EB9FC
:1038D00040F67860C2F20000406A704781B040F65E
:1038E0007860C2F200004068009001B070470000AC
:1038F00040F67860C2F20000006A704740F67860D7
:10390000C2F2000000F0D8BA80B540F6786C02230D
:10391000C2F2000C0021DCF81020C2E90131DCF811
:1039200008E05FEACE731AD128B1117C0F2902D8C2
:10393000517C0F2902D96FF0040080BD00214EF0A8
:103940000102CCF82010CCE90A11CCE90C11CCF81A
:1039500024108CF83C10CCF838108CE8070008468E
:1039600080BD000040F67861C2F2000100F0E4BAC8
:10397000024600286FF0040018BF002900D17047EC
:1039800040F67863C2F20003187A800702D44FF041
:10399000FF3070475868800744BF6FF001007047E0
:1039A00080B5D3F810C0D007DCF804E002D0BEF137
:1039B000000F04D0900705D0BEF1000F02D06FF0C9
:1039C000040080BD5868D3F814E040F0020058604D
:1039D000586820F00800586000205A635862DCF8EC
:1039E0000C204FF0010C013A022A5CEA3C92914013
:1039F00093F84020D96202F0010183F83C10DEF810
:103A00004010DEF83C1021F00301CEF83C10CEF857
:103A100028C080BD024600286FF0040018BF0029AE
:103A200000D1704740F67863C2F20003187A80072D
:103A300002D44FF0FF3070475868C0071CBF6FF0CA
:103A40000100704780B5D3F810C0D007DCF804E05F
:103A500002D0BEF1000F04D0900705D0BEF1000FD8
:103A600002D06FF0040080BD5868D3F814E040F035
:103A700001005860586820F00400586000201A6364
:103A80001862DCF80C204FF0010C013A022A5CEAC3
:103A90003C92914093F84020996202F0010183F832
:103AA0003C10DEF84410CEF82CC0DEF83C1021F0BB
:103AB0003001CEF83C1080BD40F678610022C2F2A1
:103AC000000188680A6020F001008860002081F809
:103AD00040204A600A62C1E90A22C1E90C224A6216
:103AE00081F83C208A63704740F6D860C2F200003B
:103AF00000F0E2B940F63870C2F2000000F0DCB924
:103B000040F69870C2F2000000F0D6B9F0B581B06E
:103B10001D7A4FF0FF3CAD074FF0FF3540F1FF80BD
:103B200055FA80F56FF0030C072D00F2F880DFE8FE
:103B300015F0080035000E004B00F600F600660098
:103B40002900D3E9044C657CCCF84C502BE00029CB
:103B500000F0B180012940F07381D3E904200121F4
:103B60004165D36803F0070343631378012B07D142
:103B7000D2E9012303F0070362F3C4030361C160C8
:103B80008160CAE05869816A21F001018162C16BDC
:103B900041F00301C16301210165BAE0D3E9044C9E
:103BA000257CCCF84850C0F3002594F800E075451A
:103BB00007D100F44075B5F5407F2CD16FF0060CAD
:103BC000ADE06FF0030CAAE0002900F08D80012920
:103BD00040F03681D3E9042001210165D36803F068
:103BE000070303631378012B07D1D2E9012303F004
:103BF000070362F3C4030361C16041608DE058694B
:103C0000C16A21F00101C162C16B41F03001C163A1
:103C10000121416564E000F4E055B5F5806F40F0A6
:103C20008180C0F3443CACF10B054FEAB505052D8E
:103C300000F27B80EEB22F2727FA06F6F60700F097
:103C4000748092A656F825504603E56000F1708016
:103C5000040342BF93F8404044F0010483F840401D
:103C6000022404EB4C076FF39F21B94263D1114644
:103C70006FF31F51002961D0D960C0F301616FF06B
:103C8000030CDFE801F0024C5E6DBEF1000F00F0A6
:103C9000F78099690446042900F2CC8000EB810288
:103CA0004FF21000C4F60210DFE801F0BE03BBBD06
:103CB00087000430B8E0D3E90410C26A22F00102A0
:103CC000C262826822F001028260C26B42F030025E
:103CD000C2630978012902BFC16821F00101C160F6
:103CE000586820F0010017E0D3E90410826A22F03E
:103CF00001028262426822F001024260C26B42F01D
:103D00000302C2630978012902BFC16821F00101E1
:103D1000C160586820F0020058604FF0000C604607
:103D200001B0F0BD6FF0070CF9E76FF0080CF6E793
:103D30006FF0090CF3E76FF0100CF0E76FF00D0C6B
:103D4000EDE79D694FF21004C4F60214042D1CD84F
:103D50002146DFE805F012030D100800211D0CE0DC
:103D60006FF00E0CDBE747F21401C4F2003104E0FF
:103D700004F1080101E004F10C010F6827F4803719
:103D80000F600F6847F480370F60BEF1000FC6D098
:103D900099698446042922D80FF20A0000EB8107B2
:103DA0002046DFE801F014030F120500201D0EE08D
:103DB00047F21400C4F2003009E047F21400C4F2E4
:103DC000003031E004F1080001E004F10C0001686A
:103DD00021F480310160016841F4803101600020EC
:103DE000B0EB927F02D06FF00F0C98E7B0EB525F10
:103DF000996909D10429604642D8DFE801F033030C
:103E00002E32240004342DE00429604638D800EB1B
:103E10008103100DDFE801F02B03232A1C0004347A
:103E200025E0083000E00C30016821F480310160A9
:103E300001680160184600F0BBF9002820461FD039
:103E40004FF0FF3C6BE747F21404C4F2003409E082
:103E500047F21404C4F2003409E0083402E00834E4
:103E600005E00C34206840F4003007E00C34216891
:103E70004FF60042CFF6FD721140084320606046C5
:103E800010F4300C18BF6FF0030C48E7010000007D
:103E90000200000003000000040000000100000018
:103EA0000500000040F28B207047000040F2021035
:103EB000C0F2033070470000B0B50446406804F11A
:103EC0002005C00711D06069294601F075FAA06B82
:103ED000C0070AD02168606820F001006060A06B14
:103EE00020F00100A063012088476068800758BF68
:103EF000B0BD6069294601F0CFF9A06B80070AD5F3
:103F00002168606820F002006060A06B20F0020071
:103F1000A06302208847A06B400700D4B0BD216891
:103F2000A06B20F00400A063606840F00802082045
:103F30006260BDE8B040084710B58A68D30704BF87
:103F40004FF0FF3010BD022864D000281CBF6FF076
:103F5000030010BD900740F12881C8694EF2802C03
:103F6000CEF2000C00280DD400F01F0301224009FE
:103F70000CEB80009A406FF0FF03C250BFF34F8FED
:103F8000BFF36F8F4869CB69D0F80022002B22F471
:103F90008032C0F80022D0F8002222F40032C0F8AB
:103FA0000022426822F001024260826822F001028F
:103FB000826007D403F01F0E012202FA0EF25B09A1
:103FC0004CF82320C26B4FF2100CC4F6021C42F0D6
:103FD0000302C263C26B42F03002C26300220B696B
:103FE0004A6093F800E0BEF1010F02BFC36823F0FE
:103FF0000103C360036823F0010303608869042898
:1040000031D86346DFE800F02B03262921000CF1AC
:10401000040324E090074FF0000048BF10BDD1F822
:1040200010C04FF2100248609CF80000C4F6021263
:10403000012856D18B69042B3BD81046DFE803F0EA
:10404000320328302300101D2CE047F21403C4F281
:10405000003304E00CF1080301E00CF10C031868D4
:1040600020F480501860BEF1000F00F09A8088693B
:10407000042800F29680DFE800F08E03898C0E00A1
:104080000CF1040C87E047F21400C4F2003009E0A0
:1040900002F1080006E047F2140CC4F2003C7AE09A
:1040A00002F10C00036823F48033036003680360AB
:1040B0008B69042B15D81046DFE803F00F030A0DB7
:1040C0000500101D09E047F21400C4F2003004E0BE
:1040D00002F1080001E002F10C00036843F48013D0
:1040E00003608869042812D8DFE800F00D030A0C89
:1040F0000500043207E047F21402C4F2003202E085
:10410000083200E00C32106840F4805010604869BA
:104110000124CB694EF2802E0460C26B002B42F06A
:104120000302C263C26BCEF2000E42F03002C263E1
:1041300007D403F01F0004FA00F05A094EF82200D9
:10414000CB69DCF818004EF6145C0EEB030404F5A2
:10415000C07403F00F02CEF2000C002B48BF02EB3C
:104160000C042070CA69002A0CD402F01F0001233D
:1041700052090EEB820203FA00F04FF68063CFF68D
:10418000FF73D050886840F002000DE00CF1080C7D
:1041900001E00CF10C0CDCF8000020F48010CCF8ED
:1041A0000000886820F002008860002010BD000038
:1041B000C168002904BF4FF0FF30704710B5026995
:1041C00028A4536892ED050A54F82330B8EE400A4B
:1041D00059438469490001EE101AB8EE411A80EE85
:1041E000010A02F033FBB0F5806FA4BF4FF0FF303F
:1041F00010BD4FF210010128C4F6021108DC042C96
:104200000FD8DFE804F01F031A1E1000043119E074
:10421000042C06D8DFE804F01B03131A0C00043149
:1042200015E0002010BD47F21401C4F2003109E08E
:1042300047F21401C4F2003109E0083102E008310C
:1042400005E00C31086840F4003007E00C310A68E2
:104250004FF60043CFF6FD731A401043086000206C
:1042600010BD00BF1000000018000000200000007A
:1042700040F6F870C2F20000FFF71EBE10B541F222
:104280003C04C2F20004606804F1080101F042FD40
:104290006069022818BF10BD0020606102202168FB
:1042A000BDE81040084700004EF6C0502222CEF272
:1042B0000000AA23016862F307010160042102687B
:1042C00061F30F220260026842F47F02026002681A
:1042D00063F31F620260002240F8282C0222C0F221
:1042E000002240F8242C4FF6E172C0F23F2240F841
:1042F000202C0222C0F6000240F81C2C4FF6E5727A
:10430000C0F6270240F8182C0322C1F6002240F81C
:10431000142C4FF6E372C1F6FF2240F8102C122243
:10432000C5F2000240F80C2C4FF6E572C5F203020C
:1043300040F8082C082240F8281C1221C5F2800100
:1043400040F8241C4FF6E571C5F28F0140F8201C9F
:104350000621C8F2000140F81C1C4FF6E771C8F2B4
:10436000570140F8181C0321C8F2003140F8141C12
:104370004FF6E371C8F2FF3140F8101C0221CAF277
:10438000000140F80C1C4FF6E571CBF6FF7140F8C8
:10439000081C213140F8282C40F8241C4FF6E77106
:1043A000CDF6FF7140F8201C7047000010B54EF6A6
:1043B0009854CEF2000454F8040CC00711D0BFF397
:1043C0005F8F54F8740C20F4803044F8740C54F867
:1043D000040C20F0010044F8040CBFF34F8FBFF32E
:1043E0006F8F54F8083C180A2FD0411E00F00300CC
:1043F00003294FF000024FF0000117D3990A6FF024
:10440000030303EB8101012303EB910E002100BFA5
:104410004B1C2160A26023608B1CA2602360CB1C1C
:104420000431A2602360A2600FF00FC068B10022C7
:1044300001282160A26008D04B1C02282360A260E2
:104440001FBF881C20600020A060FFF72DFF072001
:10445000BFF35F8F44F8040C54F8740C40F48030C0
:1044600044F8740CBFF34F8FBFF36F8F10BD000083
:1044700010B541F27C04C2F20004606804F1080146
:1044800001F034FC6069012818BF10BD0020606194
:1044900004202168BDE810400847000010B541F233
:1044A0007C04C2F20004606801F02EFC2168012047
:1044B000BDE810400847000010B541F27C04C2F28C
:1044C0000004606804F1080101F024FC606902281E
:1044D00018BF10BD0020606102202168BDE81040B7
:1044E00008470000B0F1007F3CBF00207047B0F1EA
:1044F000005F4FEA50605FEA8F9110285FEA9F905B
:10450000084370470348044980F30A8881F3088808
:1045100000F004F800E003200000042000F06AF836
:10452000FCF74EF9F0B581B044F2000441F6B01149
:10453000C2F2000441F6B6152068C2F20001428EB4
:10454000C2F200050A80028E2A8000BF428EEAB1C4
:10455000428E4286428ECAB1428E4286428EAAB1B5
:10456000428E4286428E8AB1428E4286EEE700BF7C
:10457000028E0286028E62B1028E0286028E42B1E5
:10458000028E0286028E22B1028E0286028E002ADE
:10459000EED1098881B106214FF6FF7680F82F1001
:1045A000206890F82F70642001F042FD012F03D1A4
:1045B0003004A6F10106F3D1288841F27042C00709
:1045C00041F6A810C2F200001CBF01210180298819
:1045D000A25852B1038801F002010B431B0404D01E
:1045E000008801B0BDE8F040104701B0F0BD000008
:1045F00070470000B0B540F200004EF20804C8F267
:1046000000004EF61455CEF20004C4F8000DCEF2B0
:104610000005286940F47020286100F039F844F260
:104620001000C1F66020016821F48071016040F241
:10463000E511686F40F4700068674EF20400CEF236
:1046400001000160FFF7B2FE286840F430202860C6
:10465000206820F020002060BFF34F8FBFF36F8FE2
:1046600001F0BEFC41F2C00046F60001C2F20000BB
:10467000C0F6891101604FF20000C4F60210016813
:1046800041F000410160016841F080410160B0BD2E
:104690007047000070B54EF210664FF6F461CEF22E
:1046A000010648F20002CFF6FF71715856F80C1C53
:1046B000C2F200026FF000531A4444F2000301F00A
:1046C0000F015209C2F2000322FA01F503F1604220
:1046D000520922FA01F4630969091A4604F01F0419
:1046E0008B4205F01F0509D185F01F014FF0FF3304
:1046F00023FA01F1A34001EA030C38E04FF0FF3048
:1047000085F01F0500FA04F420FA05FC481E8342D8
:1047100046F822402AD0D843084410F00304A0F100
:10472000010E10D05A1C4FF0FF35012C46F82250D4
:1047300009D09A1C022C46F822501EBFDA1C4FF0FA
:10474000FF3046F82200BEF1030F0FD306EB8200C4
:104750004FF0FF34031DD043421800BF1C60043AE1
:104760005C609C60DC6003F11003F7D10A4656F8E8
:10477000220040EA0C0046F8220070BD2DE9F04FFF
:1047800083B04EF20000CEF201000068C0034EF686
:104790006C70CEF2000000F1BF804FF6186100226D
:1047A000CFF6FF7142504FF61461BFF34F8FCFF633
:1047B000FF714158C1F3C905C1F34E3E6A1C8B0419
:1047C0004FEAD10C734602F0030A2FD4490B4FF481
:1047D0007F5202EA4113BAF1000F294613D043EA8F
:1047E0008C71BAF1010F0160A5F101010BD043EA10
:1047F0008171BAF1020F0160A5F102011EBF43EA07
:1048000081710160E91E032D0ED343EA81730131EA
:1048100003F1404483F0004603F18047043903600C
:10482000046006600760F9D1AEF10103BEF1000F2C
:104830006ED0A5F1010EA5F1020B4FEA8E7143F681
:10484000E07902914FEA8B714FEA8C7C0191E91E6D
:10485000009103E0002FA3F1020359D009EA4317A6
:10486000BAF1000F2C4613D04CEA07017446BAF196
:10487000010F01600CD002995C46BAF1020F41EAC7
:104880000701016004D0019939430160009C00BF19
:10489000032D0FD347EA8471013401F1404781F0C1
:1048A000004601F1804200BF043C016007600660E1
:1048B0000260F9D15F1EBAF1000F09EA47142946D8
:1048C00012D04CEA040101607146BAF1010F0BD01D
:1048D0000299BAF1020F41EA04010160594603D07E
:1048E0000199214301600099032DB3D344EA8174F7
:1048F000013104F1404884F0004604F1804200BFD9
:1049000004390460C0F8008006600260F8D1A1E7B5
:10491000BFF34F8FBFF36F8FBFF34F8F0021BFF3F4
:104920006F8F40F81C1CBFF34F8FBFF36F8F03B026
:10493000BDE8F04F01F074BB0022C266D0F89C20A5
:10494000D2070CD0D0F89C20D2071CBFD0F89C20F6
:104950005FEAC27203D0D0F89C20D207EED10022C9
:104960006FF39F2102634160612101600121C166F3
:1049700005E000BFD0F89C10C90718BF7047D0F8F9
:104980009C10C90708D1D0F89C10C90704BFD0F803
:104990009C105FEAC171EDD070470000D0F82CC0C8
:1049A0005FEA4C621FD5426B53060FD4130703D541
:1049B0004A6A01324A62C26C920700F07F808A6ABA
:1049C000002301328A62826C44220AE0D0F88020FF
:1049D000D30404D4530700F0F080022300E0012345
:1049E00054228258CB62026CCA6A52B141F6B212AA
:1049F0000123C2F200021370CA6A012A44D1402284
:104A000002E10A69002A49D010B55FEACC626BD591
:104A100091F83C20012A0FD1026F92070CD5D1E901
:104A2000012ECB685C1CCC60D25C0261CA68724506
:104A3000F2D3002281F83C204FF480734A69CC699C
:104A400001349442CC6142D20361046FA4074BD578
:104A5000CC6901349442CC6139D20361046FA4075C
:104A600042D5CC6901349442CC6130D20361046FE9
:104A7000A40739D5CC6901349442CC6127D20361B3
:104A8000026F9207DAD42FE0CA6A022A01D11022FB
:104A9000BAE0CA6A032A13D10222B5E0026B40F2DF
:104AA00057239A43026300200863886B40F001009B
:104AB0008863886B40F0020088637047002391E7A9
:104AC000CA6A092A40F085804FF400729CE00A7897
:104AD0004FF44073002A18BF4FF480730361026FD4
:104AE000026B22F0100202635FEA4C7218D45FEA94
:104AF0008C721EBF8A6A01328A625FEA8C5258BF8A
:104B000010BD41F6B21EC2F2000E9EF80020012A2E
:104B100025D100220A638A638EF8002064E000BF7A
:104B2000026F1207E3D502690B698C691A554A694D
:104B30008B6901338B618B690B628B699342EFD375
:104B40000B78026B012B55D140F257239A43026335
:104B500000220A638A6B42F001028A63C7E7D0F839
:104B60008820D20722D14B698A699A4205D2826F86
:104B70008C69E4431C44A2420AD24FF0000C8C69B9
:104B8000C1F830C08A6B9C4229D242F0020212E086
:104B90008A699342F1D002690B698C691A554B6995
:104BA0008A6901328A618A690A62F1E700220A632E
:104BB0008A6B42F001028A6316E013071ED4530584
:104BC00029D4530629D4D2054FF00A0358BF06232F
:104BD00006E7CA6A0A2A13D14FF4806214E042F051
:104BE00001028A638EF800C0016B40F257229143A4
:104BF000016310BD22F00402026378E70323EFE6AD
:104C0000CA6A062A03D180228B6B1A438A63406DDD
:104C10000020C86270470823E2E60923E0E60000AE
:104C20000023C366D0F89C30DB070CD0D0F89C3052
:104C3000DB071CBFD0F89C305FEAC37303D0D0F809
:104C40009C30DB07EED170B544F2402C042AC0F250
:104C50000F0C0CF1010E0DD1714517D2BCFBF1F315
:104C60000A24B4FBF3F463430A2B4FF0A40354EA81
:104C7000049421E0714515D2BCFBF1F33224B4FB5E
:104C8000F3F46343322B54EA049414E04DF6836347
:104C9000C4F21B33A1FB0334A30C03EB83035C00BE
:104CA000A42309E04DF68363C4F21B33A1FB033454
:104CB000A30C32245C43A023C4500123C366D0F864
:104CC0009C30DB070CD1D0F89C30DB0704BFD0F858
:104CD0009C305FEAC37303D1D0F89C30DB07EED081
:104CE000531E032B88BF70BD0FF20C0202EB83042E
:104CF000BCFBF1F2DFE803F0023F172B714561D2F4
:104D000041F2301141F2504CB1FBF2F3BCFBF2F432
:104D100003FB02F58D4204FB02F553EA039165455E
:104D200054EA049354E071453BD24FF4917140F240
:104D30002625B1FBF2F1B5FBF2F401FB02F3B3F56A
:104D4000917F04FB02F351EA0191AB4226E07145E9
:104D50002CD24FF00A0E7825BEFBF2F1B5FBF2F52E
:104D600001FB02F30A2B05FB02F351EA0191782BB8
:104D700055EA059322E0714530D240F216314FF4E6
:104D8000C864B1FBF2F3B4FBF2F403FB02F58D420D
:104D900004FB02F553EA0391B5F5C86F54EA049396
:104DA00022E04FF4917140F226231BE002EB8201D6
:104DB000C2EB021349004FF00A0EDB004FF0280C43
:104DC000242616E041F2301141F25043514353433F
:104DD0004FF0320E4FF0180C14260AE040F2163154
:104DE0004FF4C863514353434FF0320E4FF0200C41
:104DF0001C26BEFBF2F200258C180334C566D0F8E1
:104E00009C50ED070CD0D0F89C50ED071CBFD0F89B
:104E10009C505FEAC57503D0D0F89C50ED07EED1E9
:104E2000052C38BFC2F10201062B98BF0623815121
:104E3000002140F80C30C1600121C166D0F89C10FF
:104E4000C9070CD1D0F89C10C90704BFD0F89C103A
:104E50005FEAC17103D1D0F89C10C907EED070BDD4
:104E600070B5D0F82CE05FEA4E6221D5426B530654
:104E70000FD4130703D54A6A01324A62C26C920703
:104E800058D08A6A4FF0000C442301328A62826C47
:104E90000BE0D0F88020D30404D4530762D04FF045
:104EA000020C01E04FF0010C5423C258C1F82CC091
:104EB000026C41F6B31CCA6AC2F2000C3AB101227C
:104EC0008CF80020CA6A012A2AD1402268E05FEAF1
:104ED000CE626BD54B68B3B38A68CC68651CCD6075
:104EE0001D5DCC68944204D30E78002E08BF05F5F2
:104EF00000750561CD680D62056FAD0701D594425F
:104F0000EAD3944252D30B78026B012B3DD122F4A9
:104F10001672026300220A638A6B42F001021FE0EC
:104F2000CA6A022A01D110223AE0CA6A032A04D1CD
:104F3000022235E04FF0000CB8E7CA6A092A1ED1F8
:104F40004FF400722CE0026B22F41672026300220E
:104F50000A638A6B42F001028A638A6B42F00202A2
:104F60008A6323E0130714D453053CD453063DD47D
:104F70004FF00A0CD20558BF4FF0060C94E7CA6AEE
:104F80000A2A09D14FF480620AE022F0100202637B
:104F90000CE04FF0030C87E7CA6A062A03D180228F
:104FA0008B6B1A438A63426D0022CA625FEA0E72FB
:104FB00042BF4A6A01324A625FEA8E5258BF70BDF0
:104FC0009CF8003000220A63012B03D18A638CF81D
:104FD000002003E08A6B42F001028A63016B21F436
:104FE0001671016370BD4FF0080C5DE74FF0090CBE
:104FF0005AE70000D0F804C04FF0000CC0F86CC0B5
:10500000D0F89CC05FEACC7C0ED0D0F89CC05FEAA0
:10501000CC7C1CBFD0F89CC05FEACC7C04D0D0F81C
:105020009CC05FEACC7CEBD1012A6FF39F210ED1AB
:10503000026801F58051022B42F0100202600AD191
:105040000268920607D4026842F0200202E0026879
:1050500022F01002026041600121C16605E000BF3C
:10506000D0F89C10C90718BF7047D0F89C10C9072A
:1050700008D1D0F89C10C90704BFD0F89C105FEA93
:10508000C171EDD0704700000023C366D0F89C309A
:10509000DB070CD0D0F89C30DB071CBFD0F89C306D
:1050A0005FEAC37303D0D0F89C30DB07EED1002356
:1050B000012A6FF39F21036381604FF0200108BF35
:1050C000282101600121C16605E000BFD0F89C10D5
:1050D000C90718BF7047D0F89C10C90708D1D0F88D
:1050E0009C10C90704BFD0F89C105FEAC171EDD0D5
:1050F0007047000080B5D0F82CC0036C5FEA4C7399
:105100001DD500BF036F1B0719D5D0F810E00A6941
:105110008B6902F803E04A698B6901338B618B6903
:105120000B628B699342EDD3002240F207230A639E
:105130008A6B42F001028A63026B9A4302635FEA60
:105140008C721EBF8A6A01328A625FEA8C5258BF33
:1051500080BD4A698B69934206D2D0F878C08B69CA
:10516000DB4313449C4511D2D1F818C000230B63D4
:105170004FF0010E8B6B94455EEA2E921A438A63C0
:1051800040F20722016B9143016380BD8B699A4213
:10519000EAD0D0F810C00B698A6903F802C04A69E6
:1051A0008B6901338B618B690B62EFE7D0F82CC000
:1051B000436B5A0548BF436E9A0548BF036E1A05F4
:1051C00048BF836E1A0703D54A6A01324A62C36C2C
:1051D0009A0704D08A6A01328A62826C436C5A064A
:1051E00001D4002306E0D0F8802012F4A04F426DD5
:1051F0005FEA0F9310B5CB62026CD1F804E0BEF108
:10520000000F1DD0026F52061AD500BF026F920721
:1052100016D58A68CB681EF80330CC680134CC60A0
:10522000CC680C620361CB689342EFD3026B22F42B
:105230001872026300220A638A6B42F001028A63D9
:105240005FEA0C72BDE8104042BF4A6A01324A620E
:10525000CA6A012A11D1026B22F4187202638A6BA6
:1052600042F080028A638A6B42F001028A638A6B91
:1052700042F002028A630022CA625FEA8C5258BF7F
:105280007047026B22F41872026300200863886B77
:1052900040F00100886370472DE9F04F876CD1F82A
:1052A00014A0036B866BB50708D5056CC56B45F07C
:1052B0000205C5638D6945F004058D61F60778D058
:1052C000D0F80062F60374D4A3F1010B7C1C012614
:1052D000BBF1020F4FEA440756EA3696B7404E68D4
:1052E000D1F80CC006EB070EE64508D94C6802253C
:1052F000BBF1020FACEB040455EA3595EC40654672
:1053000094B30AF104080AF10209002713E000BF70
:10531000466A0A7F4B68012A4AF803504D680FBF5E
:10532000043548F805604A6802F1080501374D6008
:10533000FAB2944217D9056ABBF1010FE8D8466A60
:105340000A7F012A06D14A682AF802504A68951C49
:10535000ECE700BF4A682AF802504A6829F8026060
:105360004A68151DE2E7CD68E64515D94A68AA42A4
:1053700012D2076ABBF1010F06D84A682AF80270F8
:10538000426A4A68023206E04A684AF80270426A93
:105390004A68CD6804324A604A68AA4238BFBDE80C
:1053A000F08FC26B42F00302C263886940F00200D2
:1053B0008861BDE8F08F00002DE9F047D0F838C0D3
:1053C000C36CD1F810E0426B5FEACC646BD5D0F8C7
:1053D0000042A40367D4013AC3F10F030125022A56
:1053E0004FEA430455EA3595AC400D68D1F8089072
:1053F00005EB0408C84507D90B680224022AA9EB6B
:10540000030354EA3494E3405BB30EF1040A0EF153
:10541000020700250BE000BF0C683E5B04244662D7
:1054200001350E683444EEB2B3420C6019D90C7FDA
:105430000E68012A08D83EF80660002C0662EBD000
:1054400002240026EBE700BF5EF8066006621CB18E
:1054500004240026E3E700BF0C685AF8046008241F
:10546000DDE7C84513D90B688C68A3420FD20B68DF
:10547000012A03D83EF80330022202E05EF803302E
:1054800004220362002343620B681A440A600A681C
:105490008B689A4207D3C26B42F03002C2638A69BA
:1054A00042F001028A615FEA8C6148BF406CBDE84E
:1054B000F087000000000000000000000000000075
:1054C0002DE9F04F81B02DED0C8B9EB00A20FBF73B
:1054D000DFFB47F22934C8F200042046FBF7DEFB6D
:1054E00047F2D620C8F20000FBF7D8FB2046FBF7B6
:1054F000D5FB47F20250C8F20000FBF7CFFB47F2A2
:10550000B000C8F20000FBF7C9FB47F2EA00C8F29E
:105510000000FBF7C3FB47F2C830C8F20000FBF7FE
:10552000BDFB46F6A160C8F20000FBF7B7FB47F2EF
:105530006820C8F20000FBF7B1FB0FF22470FBF704
:10554000ADFB0FF23870FBF7A9FB0FF25870FBF7B9
:10555000A5FB46F68C34C8F20004606825698047D4
:1055600000F001010FF25C70FBF7B8F90220A847C8
:1055700058B1014646F6AB40C8F20000FBF7AEF961
:1055800047F21B40C8F2000055E0636A0220002188
:1055900000220293984730B1014646F60770C8F2E0
:1055A0000000FBF79BF947F2D440C8F20000FBF77C
:1055B00075FB47F24350C8F20000FBF76FFB47F260
:1055C0004F30C8F20000FBF769FB47F21E10C8F22B
:1055D0000000FBF763FB47F23440C8F20000FBF722
:1055E0005DFB47F21020C8F20000FBF757FB47F2C3
:1055F0006110C8F20000FBF751FB46F65C35022053
:10560000C8F200052969884728B1014646F6864058
:10561000C8F2000009E0AA6A02200121904798B16F
:10562000014646F65D40C8F20000FBF757F947F225
:105630000240C8F20000FBF731FB01201EB0BDECB8
:105640000C8B01B0BDE8F08F47F2EF10C8F20000FC
:10565000FBF724FB48F201106D69ADF84C0013A96B
:105660004C2002220023A84730B1014646F6406094
:10567000C8F20000FBF732F947F20070C0F20100F7
:1056800000F57A60039000BF0398013803900BD0B7
:1056900003980138039007D003980138039003D092
:1056A000039801380390EFD1022013A9ADF84C0004
:1056B0004C2002220023A84730B1014646F6036081
:1056C000C8F20000FBF70AF94CF25030039000BF1B
:1056D0000398013803900BD003980138039007D04A
:1056E00003980138039003D0039801380390EFD159
:1056F0004DF2240013A9ADF84C004C2002220023E7
:10570000A84730B1014646F64A50C8F20000FBF700
:10571000E5F80A2013A9ADF84C004C200222002322
:10572000A84730B1014646F68850C8F20000FBF7A2
:10573000D5F844F2090013A9ADF84C004C20022220
:105740000023A84730B1014646F6C550C8F2000014
:10575000FBF7C4F847F2FB20C8F20000FBF79EFA03
:1057600046F62B504C21C8F20000FBF7B7F847F281
:105770000310C8F20000FBF791FA47F2C900C8F223
:105780000000FBF78BFA47F22F50C8F20000FBF73E
:1057900085FA47F2ED30C8F20000FBF77FFA47F2D6
:1057A0005040C8F20000FBF779FA47F22E20C8F209
:1057B0000000FBF773FA47F24E20C8F20000FBF737
:1057C0006DFA47F23310C8F20000FBF767FA46F6AD
:1057D0009B70C8F20000FBF761FA0FF2744041F6CB
:1057E000AC1790ED009FA06941F218159FEDBFAA7C
:1057F0009FEDBFBA9FEDBFCAC2F200074CF2503610
:10580000C2F2000541F25638B1EE04DB4FF0010957
:10581000019005E009F10109B9F1060F00F0C2811C
:1058200046F675604946C8F20000FBF757F847F2A4
:10583000AC20C8F20000FBF731FA47F2B310C8F20F
:105840000000FBF72BFA41F6B8110020C2F200016C
:105850000022087041F22021C2F20001087041F6D6
:10586000A411C2F200013860086041F6B410C2F21F
:105870000000012101700220029B4FF4F031984793
:105880000146043018BF002940F0418141F2222036
:10589000019AC2F200004FF470719047002840F066
:1058A000838147F28710C8F20000FBF7F7F947F24F
:1058B000A530C8F20000FBF711F82846FBF7D1F934
:1058C00038684CF6CD4249F6991300244FF0000B8E
:1058D000CCF6CC42C1F6991306E000BF824644459F
:1058E00004F1320450462DD2139600BF13990139AA
:1058F00013910BD013990139139107D013990139E2
:10590000139103D0139901391391EFD1D7F800A067
:105910008245E3D9AAEB000083440BFB02F04FEA77
:1059200070009842DBD82E20FBF7B2F92846FBF72F
:1059300098F949F699134CF6CD42C1F69913CCF675
:10594000CC42CCE7E7A0FBF7A9F947F2D510C8F2A3
:105950000000FBF7A3F941F6B4110020C2F20001E8
:10596000087046F6D0403968C8F20000FAF7B6FF72
:1059700041F6B8150120C2F20005287047F2153033
:10598000C8F20000FBF78AF946F6F1604AF680118A
:10599000C8F20000C0F20301FAF7A0FF00EE10BA4F
:1059A00046F6FC405946B8EE400AC8F2000020EE28
:1059B0000A0A80EE0B0AB7EEC00A53EC102BFAF776
:1059C0008DFFCBEB0B10840147F25500C8F20000AD
:1059D0002146FAF783FF00EE104A47F23B00B8EE8B
:1059E000400AC8F2000080EE0C0AB7EEC00A53EC81
:1059F000102BFAF773FF0DF10C0B47F29632584655
:105A00004021C8F200024B46FAF774FF46F6DD70FB
:105A10004946C8F200005A46FAF760FF2878002885
:105A20006AD010200DF14C0A17904FF00110189019
:105A30004BF68030199047F20070C0F201001A90C6
:105A40000220C0F210001B9046F26410C6F27410DF
:105A50001C9045F20030C0F207001D905846A2A1EC
:105A60008AED009FFBF780F941F218150028C2F279
:105A7000000553D0044650462C2101222346FCF752
:105A80000AFA012852D14AF6801A41F22220C0F2C5
:105A9000030A0221C2F2000052462346FCF7FBF93A
:105AA00050454BD12046FBF787F946F6FC70594626
:105AB000C8F20000FAF712FF46F6E2605146C8F25B
:105AC0000000FAF70BFF47F23B0053EC1D2BC8F226
:105AD0000000FAF703FF45F20030C0F2070000F1C2
:105AE0002C0147F27D00C8F2000037E00000C842F8
:105AF00000007A4300803B4747F28440C8F2000030
:105B0000FBF7CCF841F21815C2F2000521E046F689
:105B10002E70C8F20000FAF7E1FEB7E646F6B27062
:105B20005946C8F20000FAF7D9FE12E0014646F6DF
:105B3000B830C8F20000FAF7D1FE07E0014646F699
:105B4000F930C8F200005246FAF7C8FE2046FBF7CB
:105B500033F946F659704946C8F20000FAF7BEFE1E
:105B6000B9F1050F1ED047F28720C8F20000FBF7FD
:105B700095F844F24020C0F20F00139013980138BA
:105B800013903FF447AE1398013813903FF442AEA0
:105B90001398013813903FF43DAE139801381390D9
:105BA000ECD137E605241BE0014646F63D40C8F23D
:105BB0000000FAF793FE41F6B4110020C2F2000192
:105BC000087047F2AF40C8F20000FBF767F846F6EE
:105BD0007A704946C8F20000FAF780FEA9F1010484
:105BE0000A20FBF755F847F22935C8F20005284688
:105BF000FBF754F847F29400C8F20000FBF74EF8A8
:105C00002846FBF74BF846F6C8602146C8F200006C
:105C1000FAF764FE04EB840147F21D00C8F20000AD
:105C2000FAF75CFE47F26B40C8F20000FBF736F86B
:105C300047F26730C8F20000FBF730F846F6A16083
:105C4000C8F20000FBF72AF80020F7E400BF00BF0D
:105C5000524946462453070057415645666D742005
:105C600053797374656D20696E697469616C697AC2
:105C70006174696F6E2E2E2E000000005B322F358E
:105C80005D20417564696F20737562737973746503
:105C90006D20696E697469616C697A6174696F6E8F
:105CA0002E2E2E00496E697469616C697A696E677F
:105CB00020617564696F2073756273797374656DA3
:105CC0002E2E2E00202053414920636170616269AD
:105CD0006C69746965733A206173796E633D2564FC
:105CE0000A0000005D00000077620000D1E9002397
:105CF0009A4207D3CA6842F00102CA60C16921F41E
:105D00007F41C16180697047C16921F00201C161B1
:105D1000704700002DE9F04F83B0C3684269D0F8A6
:105D20000080002A3ED0DFB20A6877B3D1F804C001
:105D3000012F03F00103009338D1009B3BB3036AAA
:105D4000456A866AC76A624521D25FEAC87440F034
:105D5000FD805FEA887400F102815FEA487300F118
:105D600008815FEA087300F10D815FEAC86300F102
:105D700013815FEA886300F118815FEA486300F1EC
:105D80001E815FEA086302D522E1D1F804C06245B2
:105D900008D3C2694FF603739A43C261CA6842F0DE
:105DA0000202CA60006903B0BDE8F08FFC1A4FEA36
:105DB000C87302934FEA88734FEA487A4FEA087B28
:105DC000019301E0023CB8D0D0F820E0456A876A30
:105DD000D0F82C90624522D2029B23B18B6823F825
:105DE00012E001320A60019B002B3DD4BAF1000F92
:105DF00044D4BBF1000F49D45FEAC8634FD45FEAD3
:105E0000886354D45FEA48635AD45FEA086306D5CE
:105E10008B684FEA194723F8127001320A60036A4F
:105E2000456A876AD0F82CE06245CBD2029E26B143
:105E30008E6826F8123001320A60019E002E49D485
:105E4000BAF1000F4FD4BBF1000F54D45FEAC8631E
:105E50005AD45FEA88635FD45FEA486365D45FEA37
:105E60000863AFD56AE000BF8B684FEA1E4623F88F
:105E7000126001320A60BAF1000FBAD58B6823F8BC
:105E8000125001320A60BBF1000FB5D58B682E0CA1
:105E900023F8126001320A605FEAC863AFD58B68ED
:105EA00023F8127001320A605FEA8863AAD58B6812
:105EB0003F0C23F8127001320A605FEA4863A4D5F0
:105EC0008B6823F8129001320A605FEA08639FD45E
:105ED000A5E700BF8E681B0C26F8123001320A605D
:105EE000BAF1000FAFD58B6823F8125001320A6067
:105EF000BBF1000FAAD58B682D0C23F8125001328C
