:0200000480007A
:1000000000000420B54C0080893A00808D3A0080C1
:100010008D3A00808D3A00808D3A00808D3A0080C4
:10002000000000000000000000000000893A00808D
:10003000893A008000000000893A0080893A0080F7
:1000400021340080FD340080D935008015360080D1
:10005000293600803D3600805136008065360080AC
:10006000793600808D360080353400804934008038
:100070005D340080713400808534008099340080C4
:10008000AD340080C1340080D5340080E934008074
:100090001135008025350080393500804D350080D0
:1000A0006135008075350080893500809D35008080
:1000B000B1350080C5350080ED3500800136008007
:1000C000A1360080893A0080893A0080893A008010
:1000D000893A0080893A0080893A0080893A008014
:1000E000893A0080893A0080893A0080893A008004
:1000F000893A0080893A0080893A0080893A0080F4
:10010000E14A0080F14A0080893A0080893A008003
:10011000893A0080893A0080893A0080893A0080D3
:10012000893A0080893A0080893A0080893A0080C3
:10013000893A0080893A0080893A0080893A0080B3
:10014000893A0080893A0080893A0080893A0080A3
:10015000893A0080893A0080893A0080893A008093
:10016000893A0080893A0080893A0080893A008083
:10017000893A0080893A0080893A0080893A008073
:10018000893A0080893A0080893A0080893A008063
:10019000893A0080893A0080893A0080893A008053
:1001A000893A0080893A0080893A0080893A008043
:1001B000893A0080893A0080893A0080893A008033
:1001C000893A0080893A0080893A0080893A008023
:1001D000893A0080893A00801D4D0080494E008098
:1001E000893A0080893A0080893A0080893A008003
:1001F000893A0080893A0080893A0080893A0080F3
:10020000893A0080893A0080893A0080893A0080E2
:10021000893A0080893A0080893A0080893A0080D2
:10022000893A0080893A0080893A0080893A0080C2
:10023000893A0080893A0080893A0080893A0080B2
:10024000893A0080893A0080893A0080893A0080A2
:100250003D3B00802D3C00803D3C00804D3C0080BB
:10026000893A0080893A0080893A0080893A008082
:10027000893A00807D3F0080254000803540008025
:1002800045400080454C0080E54B0080D54B008008
:10029000893A0080893A0080893A0080893A008052
:1002A000893A0080893A0080893A0080893A008042
:1002B000893A0080893A0080893A0080893A008032
:1002C000893A0080893A0080893A0080893A008022
:1004E000893A0080893A0080893A00809131008001
:1004F0006D3200804933008085330080993300805D
:10050000AD330080C1330080D5330080E9330080F3
:10051000FD330080A5310080B9310080CD310080ED
:10052000E1310080F5310080093200801D32008009
:1005300031320080453200805932008081320080A3
:1005400095320080A9320080BD320080D132008017
:10055000E5320080F93200800D33008021330080C5
:10056000353300805D3300807133008011340080AA
:10057000893A0080893A0080893A0080893A00806F
:10058000893A0080893A0080893A0080893A00805F
:10059000893A0080893A0080893A0080893A00804F
:1005A000893A0080893A0080893A0080893A00803F
:1007C00000F002F800F0B4F814A696E8000CB24469
:1007D000B344DA4501D100F0ABF8BAE80F000FA638
:1007E00096E83000A5EB040504EB0607AAEB070426
:1007F000A7F101074FEA15154FEA3414A4F10104DB
:10080000AC4201D300F094F813F0010F18BFFB1AAB
:1008100043F0010300F001F8DBE71847FC8C00000F
:100820002C8D0000103A24BF78C878C1FAD852073E
:1008300024BF30C830C144BF04680C60704700005A
:10084000704700000023002400250026103A28BF2E
:1008500078C1FBD8520728BF30C148BF0B60704732
:100860006E2900F0EB82702900F04184662908F0BF
:100870001380652908F01080672908F00D80612930
:1008800008F00C8003681B0A28BF41F08001692929
:1008900000F09882642900F09582752900F0928218
:1008A0006F2900F0CF83782900F00D84E92900F04A
:1008B0006983E42900F06683F52900F06383EF295A
:1008C00000F0CC83F82900F00C840368DB0928BF12
:1008D00041F08001632901F05983732901F05E839F
:1008E000E32901F06983F32901F06E83002070474A
:1008F0001FB507F092FF0A480A4900F0DDFE01F03B
:10090000F3FC04000020002107F024FF401C60607D
:100910000020002107F008FFE06000F0B7FD1FBDD8
:100920000080002000C0002010B500F018FE10BDAF
:1009300004F086FCDFF80CD0FFF7DAFF06F09AFC33
:1009400001F00DFE0000042003B4FFF7EDFF03BC2F
:1009500001F036FE0FB4044910B503AA029800F066
:10096000A1FA10BC5DF814FB181100200FB41CB5DF
:100970000C0007AA009007D04142A14202D32044B4
:10098000401E01E04FF0FF30074B7B446946019069
:10099000069800F06CFA0021002C01D0009A11702A
:1009A0001CBC5DF814FB00000705000070B5044690
:1009B000C068810713D0800601D5A56A04E0A1694B
:1009C000606808442169451A204600F01BFD00229A
:1009D00006462946204600F059FC304670BD0020EE
:1009E00070BD70B510B1BDE87040DFE70025074C61
:1009F0006E1E07E02046FFF7D9FF00B13546206D97
:100A000020F00104002CF5D1284670BDC410002050
:100A10002DE9F0410C461646070047D0104600F07D
:100A20006FF82078611C61280AD0722802D07728DC
:100A30003CD102E00125002405E00225042402E067
:100A4000082448F2020511F8010B2B2806D0622871
:100A500009D011F8010C74280AD00BE045F0030509
:100A600044F00204EFE745F0040544F00104EAE72E
:100A700044F010043846214600F0ADF8411C15D072
:100A80000021316171604FF40071F560F1617061B6
:100A9000200704D530460222002100F0F7FB306D1C
:100AA00040F0010030653046BDE8F0810020FBE7F2
:100AB0002DE9F0410D460646104C206DC10704D0CB
:100AC000410804D020F00104F7E722460EE054204C
:100AD00000F0B4F807000ED0206D47F00101084384
:100AE00054212065384600F09FFD3A46294630469D
:100AF000BDE8F0418CE70020D6E70000C4100020DC
:100B00002DE9F04704464FF0FF380026C568D4E9C8
:100B10000497A80718D0204600F074FC384600F06F
:100B200064F8002800DA4646280502D5484600F059
:100B3000B4F84C21204600F077FD206D20F0010034
:100B400020653046BDE8F0874046FBE7032A40F2C7
:100B5000308010F0030C00F0158011F8013BBCF15F
:100B6000020F624498BF11F801CB00F8013B38BF77
:100B700011F8013BA2F1040298BF00F801CB38BF85
:100B800000F8013B11F0030300F01C85083AC0F0A7
:100B9000088051F8043B083A51F804CBA0E808104B
:100BA000F5E7121D5CBF51F8043B40F8043BAFF37E
:100BB0000080D20724BF11F8013B11F801CB48BFD8
:100BC00011F8012B24BF00F8013B00F801CB48BF0E
:100BD00000F8012B70470EB5CDE9000101F05CFB78
:100BE000029069460120ABBE0EBD08B56946009073
:100BF0000220ABBE08BD1FB58DE807006946052081
:100C0000ABBE04B010BD1FB58DE80F0069460620CD
:100C1000ABBEF6E708B5694600900920ABBE08BD3B
:100C20001CB5CDE9000169460A20ABBE1CBD70476A
:100C300008B5694600900C20ABBE08BD70B50646ED
:100C400000F01AFD056806F10B0020F00704B4421D
:100C50009CBF002070BD2B466A68BAB11068A042E4
:100C600010D304F1080188423CBF5068586007D394
:100C70005168101941601168091B016058601460C7
:100C8000101D70BD13465268002AE7D12146284640
:100C900000F0FEFC0028DED170BD70B50446051FD3
:100CA00000F0EAFC0068002C14BF446870BD002C02
:100CB00018BFAC423CBF20466468F8D301680A18EC
:100CC000AA4218BF456003D12A6805461144016055
:100CD00028684119A1421CBF6C6070BD61686960E1
:100CE00021680844286070BD10B500F0C9FC006898
:100CF00010BD10B5044600F0C3FC046010BD70B513
:100D0000044685690068C10601D5302600E020262A
:100D1000C00707D070BDD4E9012130469047206A52
:100D2000401C20626D1EF6D570BD70B50446856905
:100D30000078C00707D170BDD4E901212020904779
:100D4000206A401C20626D1EF6D570BD09684A05F8
:100D500001D540B27047C905FCD500B2704709689B
:100D60004A0501D5C0B27047C905FCD580B27047AD
:100D700070B50C460546012A05D02878800600D5B6
:100D8000EA69002302E0012305E05B1C934202D2E2
:100D9000E05C0028F9D1A869E618C01AA861286AA1
:100DA000184428622846FFF7AAFF04E0D5E901218C
:100DB00014F8010B9047B442F8D32846FFF7B5FF6B
:100DC00070BD00002DE9F041064600241068752929
:100DD000314616A510D0FFF7B9FF002802DA4042CD
:100DE00013A507E031688A0701D512A502E049077B
:100DF00004D511A5012401E0FFF7B1FF00210A226B
:100E000006F1240709E0B0FBF2FCB0FBF2F302FBB1
:100E10001C00303078541846491C0028F3D1234672
:100E20002A463046BDE8F04100F0C0BC000000009A
:100E30002D0000002B000000200000001168026857
:100E4000006A530501D508700AE0D30501D5088072
:100E500006E0130603D5C217C1E9000200E00860EE
:100E60000120704701694A1C02610878704700B58B
:100E70008FB0CDE901310021059105497944CDE9D3
:100E800003101146684600F03DF90FB000BD0000A8
:100E9000E5FFFFFFD1E900239A4202D2531C0B6009
:100EA00010707047074B70B50D467B44FFF7DFFFAE
:100EB0000446284601F08CF810B14FF0FF3070BDA9
:100EC000204670BD5F7800002DE9FF5F15468A4619
:100ED0000446DFF8AC80F8440027D8E900103E460D
:100EE000CDE9001010E05AF826106A4602A801F079
:100EF000A8F9411C07D02178890603D5E269391881
:100F000091420DD80744761C2078800602D5E0690E
:100F1000B84205DDAE42E6DB5AF826000028E2D1F1
:100F2000A069C01BA0612046FFF7E9FED8E90010C8
:100F3000CDE90010002017E05AF828106A4602A8F0
:100F400001F07FF9B0F1FF3F81460BD000250DF194
:100F5000080B05E0D4E901211BF8050090476D1C42
:100F60004D45F7D308F10100B0428046E4DB206A2A
:100F7000384420622046FFF7D8FEBDE8FF9F0000FE
:100F8000C67900002DE9F0418046D21D22F007020B
:100F90000025D2E90002F52915A614D0011E72F130
:100FA000000106DA0023D0EB030063EB020211A676
:100FB00008E0D8F800108B0701D50FA602E049071A
:100FC00001D50EA601251146002408F1240704E0EE
:100FD00000F0A7FB30323A55641C50EA0102F7D109
:100FE0002B46324621464046BDE8F04100F0DEBBCC
:100FF000000000002D0000002B0000002000000079
:1010000030B4002100F1240408E002F00705D20802
:10101000303542EA4372DB086554491C52EA030545
:10102000F3D10468002310A2250708D504F020049A
:101030000C4304D0C46901230CA2641EC46130BCFB
:1010400000F0B4BB10B5044621461068FFF787FED8
:1010500002462046BDE810400023D1E7D21D22F011
:101060000701D1E90023CBE70000000030000000B9
:10107000F0B40D460188090502D5214C7C4402E0FC
:101080001F4C7C440E34002100F1240608E002F0DD
:101090000F071209E75D42EA03721B097754491CE6
:1010A00052EA0307F3D102780023120704D5702D0A
:1010B00006D009B1022311342246F0BC00F076BB01
:1010C00001231034F8E770B504460D462146106838
:1010D000FFF745FE024629462046BDE87040002342
:1010E000C6E7D21D22F00703D3E90023C0E7036857
:1010F000126843F0200303600823C3610023B7E7AD
:10110000287800002DE9F05F894604464FF0000A78
:10111000DFF874B1FB44C0F820A02046E16888479E
:10112000002874D0252806D0D4E901219047206AF0
:10113000401C2062F1E700265F462046E1688847B0
:101140002028054607DB312D05D2781910F8200C30
:1011500008B10643F1E7B00701D526F00406C4F84C
:101160001CA00027C4F818A02A2D09D0284607F093
:10117000C6FA38B304EB8708303DC8F8185019E0B8
:1011800059F8041B204604EB87029161E168884707
:10119000012F054618D1E069002820DA26F0200644
:1011A0001DE0D8F8180000EB800005EB4000303857
:1011B000C8F818002046E1688847054607F09FFAFE
:1011C0000028EED1012F0AD02E2D08D12046E1684B
:1011D00088477F1C0546022F46F02006C4DBA06925
:1011E000002803DA404246F00106A061F00701D072
:1011F00026F010066C2D0BD0682D09D04C2D39D05F
:101200006A2D35D0742D35D07A2D33D016E038E0E4
:10121000E1682F4620468847B842054609D16C2F21
:1012200026D04FF48060E168064320468847054693
:1012300004E06C2F1AD04FF4807006430DB3A5F173
:101240004100192802D8203546F400664A4629464E
:10125000204626604E46FFF703FB80B101280BD0E5
:10126000F61D26F0070000F1080956E74020E4E7E4
:101270008020D8E70020D6E706F104094DE728468C
:1012800052E7206ABDE8F09FB87700002DE9F041F1
:10129000044616460D464769007B80072ED0384627
:1012A000FFF7B8FC50BB3EB3012E02D0022E25D171
:1012B00004E0204600F081FF05441DE03846FFF7BA
:1012C000B7FCE168002841F01001E16005DA204632
:1012D00000F058F80120BDE8F081C9030BD5626821
:1012E000E16A914200D81146A26911442269891A23
:1012F000814200DD08460544002D01DA0220EAE7BC
:10130000E16A6068E268814206D29103E06203D537
:1013100022F4003141F01002A6690027AE4213DC2E
:10132000E16A814201D90B4600E0034603EB060C5B
:101330002369ACEB030CAC4506DD814201D98C4638
:1013400000E084469C4505D1A760276042F020005C
:10135000A5620DE0AD1BE669AE1B8142A66000D917
:101360000846C01A281A20605819606022F0200030
:1013700003490840E060002084F84870ABE70000B3
:10138000BFCFD7FFC16821F4001141F08001C160D7
:1013900000218160016070472DE9F74F15460C462A
:1013A0004FF0FF3B3848D768D2F814A0074209D065
:1013B0005046A969FFF734FC002819DB3248C043C6
:1013C0000740EF604FF000496FF000484C4501D3F3
:1013D000464600E0264600993B4650463246FFF717
:1013E0000AFCA96920F00042B21A1144A96128B18F
:1013F0002846FFF7C7FF5846BDE8FE8FA41BE5D17E
:101400000020F9E770B504460569C06A6168884242
:1014100000D80846E16821F42011E160C90312D523
:10142000A84208D02246411B2846FFF7B5FF10B15D
:101430004FF0FF3070BD0020E562C4E90150E06864
:1014400020F48030E060002070BD10B50446C06814
:1014500020F02000E060A16AA06988420DD02046FB
:10146000FFF7D0FFE06820F4405040F01000E0604B
:10147000A06AA0612069E062606044F24001E06817
:101480008843E06010BD00001000020010B5424823
:10149000542100F0C9F84148542100F0C5F84048F3
:1014A000542100F0C1F83F493B483C4A3F4B08609B
:1014B0003D490A603A491960531C0365481C106590
:1014C000012008653B48344A39A17844FFF7A0FA67
:1014D00020B9384878440A3800F0D7FE37482F4AF8
:1014E00035A17844FFF794FA20B9344878440A3893
:1014F00000F0CBFE32482A4A2FA17844FFF788FA41
:1015000020B92F4878440A3800F0BFFE4023224813
:10151000DC000021224600F071FE20B1254878440D
:10152000543800F0B2FE1D4822464023002100F04E
:1015300065FE20B121487844543800F0A6FE1848D2
:1015400022461023002100F059FE002806D01C4836
:101550007844BDE81040563800F097BE10BD1048E2
:1015600070B5006D20F001040B48FFF7C9FA0B4875
:10157000FFF7C6FA0A48FFF7C3FA09E0206D20F02A
:1015800001052046FFF7BCFA2046FFF786FB2C46F4
:10159000002CF3D170BD0000C410002018110020F1
:1015A0006C11002000000020040000200800002032
:1015B000720000001374000077000000FF73000049
:1015C000EB73000010B5203AC0F00B80B1E8185062
:1015D000A0E81850B1E81850A0E81850203ABFF41D
:1015E000F5AF5FEA027C24BFB1E81850A0E81850BC
:1015F00044BF18C918C0BDE810405FEA827C24BF10
:1016000051F8043B40F8043B08BF7047D20728BF9D
:1016100031F8023B48BF11F8012B28BF20F8023BEC
:1016200048BF00F8012B70474FF0000200B5134689
:1016300094469646203922BFA0E80C50A0E80C50F2
:10164000B1F12001BFF4F7AF090728BFA0E80C50A3
:1016500048BF0CC05DF804EB890028BF40F8042B9C
:1016600008BF704748BF20F8022B11F0804F18BF09
:1016700000F8012B7047704700487047C8110020E0
:1016800000487047C011002070477047704770478E
:1016900038B504460A4600206946AFF300800028AA
:1016A00008BF38BD02460099204600F021FE012007
:1016B00038BD012000F07CBFF8B5AFF300800546CF
:1016C00000200C460C2000BF0646A819A0420DD9E8
:1016D000324669460020AFF30080070008BF00F0E3
:1016E00067FF0098A04218BF0546C419FFF7C4FF62
:1016F00005600746F01D20F007004619284600F057
:101700000AF8B44208BFF8BDA21B31463868BDE8EC
:10171000F84000F0EDBD00210160416070470C20F1
:10172000704730B5B0F10A0271F100034FEA900E34
:101730004EEA817EB0EB0E0061EB91014FEA101E84
:101740004EEA017E10EB0E0041EB11114FEA102E14
:101750004EEA016E10EB0E0041EB11214FEA104EE4
:101760004EEA014E10EB0E0041EB1141401841F1E1
:1017700000014FEAD00040EA41704FEAD1014FEA40
:10178000810444EA907410EB800544EB01046D1968
:1017900044EB0404521BA3414FF0000348BF0A323C
:1017A00000D530BD401C41F1000130BD2DE9F047AE
:1017B0000D4699469246044600F1240801688806C1
:1017C00004D5E06921F01001216000E00120A84269
:1017D00001DD471B00E00027A1697A1902EB09002F
:1017E000081AA0612078C00602D42046FFF787FAC5
:1017F000002608E0D4E901211AF806009047206A83
:10180000401C761C20624E45F4DB2078C0060AD5C9
:101810002046FFF774FA06E0D4E901213020904712
:10182000206A401C2062381EA7F10107F4DC07E0A3
:10183000D4E9012118F805009047206A401C206275
:10184000281EA5F10105F3DC2046FFF76EFA20788B
:10185000000602D50220BDE8F0870120FBE72DE954
:10186000FF4F0C461E464FF0FF378BB0D2E9000108
:10187000DDF860800A908A46C1F30A5505B93D46F5
:10188000002108464FF00000BAF1000F00F44000BC
:1018900005DA00EB80004FF4400101EA50004FEA06
:1018A0009059B9F1010F00DDB9460A9850EA4A0093
:1018B0000ED044F61050A5F2FF3545432F14B8F171
:1018C000000F1ED07542291E1EDDC9F100021CE06A
:1018D000B8F1010F4FF0000001D0302103E0F243D6
:1018E00005E02154401CB042FBDB304600220021C1
:1018F00021540B99C1F80880C1E900200FB0BDE860
:10190000F08FBD1B6D1CDEE74A4600DA694206A86F
:1019100000F048FD06AB93E8070003AB83E807003F
:1019200050460A9906F0A9FA8DE80700A0F5005084
:101930001F3800900398002D0ADD42F21F014A462D
:101940000844002303A90390684606F013FD09E04C
:10195000A0F500504A461F38002303A903906846AB
:1019600006F01DFD8DE807000004000C03D04FF0C9
:10197000FF30410800E01046B8F1000F03D000220C
:10198000009215461EE0751E05D4FFF7CAFE3032E0
:1019900062556D1EF9D5B3460122084302D00022DC
:1019A0007F1C04E02078302801D100227F1E002A0D
:1019B000099784D01DE0112D07DAFFF7B2FE30320F
:1019C00062556D1C50EA0102F5D1084302D000981F
:1019D000C8B10EE00021681E05E0235C625C635420
:1019E0002254401E491C8142F7DBAB46A81B401E17
:1019F0000990002004F80B000B98099AC0F80880A1
:101A0000C0E9002B7AE711264FF0000857E72DE9CF
:101A1000F04F88460446D21D22F0070191B0D1E96B
:101A20000001CDE90A0106F0F1FD02460B98C00F56
:101A300001D02D2007E02068810701D52B2002E08E
:101A4000202101EAC000032A099001D0072A05DB02
:101A500003464146204600F065FC0BE120788006F5
:101A600001D5E06900E00620B8F1650F814606D097
:101A7000B8F1660F18D0B8F1670F70D131E00020CF
:101A8000B9F1110F009001DB112301E009F101030D
:101A90000AAA01A90CA8FFF7E2FEDDE90C700026F6
:101AA00009F10105834647E001204B4600904FF0C5
:101AB00000470AAA01A90CA8FFF7D1FEDDE90DB085
:101AC0000C995D46002610B909F101000D18B9EB1B
:101AD000050003D4C0F1FF3609F10105A5EB0900AB
:101AE0002BE0B9F1010F01DA4FF001090020B9F143
:101AF000110F0090484601DD112300E003460AAAB9
:101B000001A90CA8FFF7ABFEDDE90C704D460026DD
:101B10008346207800070AD4AB4500DA5D4601A869
:101B2000012D04DD411911F8011C302907D04F4562
:101B300002DA17F1040F04DA012082460FE06D1E6D
:101B4000EEE7002F02DCED1B3E4403E0781CA842C8
:101B500000DD7D1CB81B00F1010A4FF00047207822
:101B6000000703D4AA4501DB4FF0FF3A0021B7F18B
:101B7000004F0DF143088DF8431024D002202B2391
:101B8000002F01DA7F422D230A21021EA0F101005D
:101B900000DC5FB197FBF1FC97FBF1F201FB1C7CD1
:101BA00017460CF1300C08F801CDEEE7A8F1010062
:101BB00003702188090501D5452100E06521A0F1C8
:101BC000010800F8011C09980FA9A1EB0807FF1DE7
:101BD00000B10120411901EBEA70A1693844081AEB
:101BE000401EA0612078C00602D42046FFF787F887
:101BF000099828B1D4E901219047206A401C20624D
:101C00002078C00622D52046FFF779F81EE0002E86
:101C100004DBB34502DD01A8805D00E03020D4E99B
:101C200001219047206A401C2062761CAAF1010025
:101C30005FEA000A0AD100F057FBC0680168405C07
:101C4000D4E901219047206A401C2062281EA5F19A
:101C50000105DCDC07E0D4E9012118F8010B90470D
:101C6000206A401C2062381EA7F10107F3DC2046E1
:101C7000FFF75BF8032011B041E600002DE9F04FBB
:101C800004460D46D21D22F0070089B0D0E9009726
:101C90004846394606F0BAFC0246F80F01D02D231B
:101CA00007E02068810701D52B2302E0202101EA0B
:101CB000C0038DF820300BB1012000E00020032A82
:101CC000824601D0072A04DB2946204600F02AFB81
:101CD0003FE12078800601D40D2500E0E569C7F3D7
:101CE0000A560D2D49DA00214FEA175B08464FF0DE
:101CF0000000002F00F4400007DA00EB80004FF4F2
:101D0000400100EBD07001EA60008115012901DD7E
:101D10004FF0FF3100224FEA850CBCF1180F06D3BB
:101D20001346ACF118004FF08052C24003E04FF46C
:101D3000801323FA0CF30CF10C0CBCF1200F04D32C
:101D4000ACF1200C09FA0CF001E007FA0CF00029C4
:101D50004FF0004801DD18B90FE00ED140450CD31B
:101D600019EB02095F4121B9404502D19F4329EA9D
:101D70000209BBEB175F00D0761C2088000502D556
:101D80007B48784402E07A487844193808AA30231E
:101D900002F80A30037C0AF10101002E0AF1020A5E
:101DA00053546A4602DC4FF0300101E04FF031013C
:101DB0004FF001088DF8001002D0A6F2FF3603E0C4
:101DC00059EA470100D06B4E002D02DC217809074B
:101DD00004D54FF002082E218DF80110C4460021D1
:101DE0000BE0C7F303433F01C35C491C6D1E02F8BF
:101DF0000830052908F1010801DA002DF1DC002185
:101E00000CE000EB1973491C1B786D1E082902F8C1
:101E100008304FEA091908F1010801DA002DF0DC59
:101E200021688B0602D516E0A8F10108E04505DD22
:101E300002EB080313F8013C302BF5D0B8F1000F8A
:101E400009DD02EB080313F8013C2E2B03D109072F
:101E500001D4A8F10108002D05DD3E2102F808108B
:101E60006D1E08F10108407C002E02F8080008F100
:101E7000010804DA2D20764202F8080002E02B2047
:101E800002F808000A214FF47A70864208F101082E
:101E90000BDB96FBF0F3303302F8083096FBF0F3DF
:101EA00008F1010800FB136601E0642E0CDB6420DE
:101EB00096FBF0F3303302F8083096FBF0F308F1AC
:101EC000010800FB136601E00A2E06DB96FBF1F029
:101ED000303002F8080008F1010896FBF1F001FB30
:101EE0001060303002F80800A16908F1010808EB21
:101EF000050202EB0A00081AA0612078C00602D48D
:101F00002046FEF7FCFE216A08AE01EB0A002062C3
:101F100004E0D4E9012116F8010B9047BAF1010A57
:101F2000F7D22078C00602D52046FEF7E8FE6E46BE
:101F300009E016F8010B3E280FD0D4E901219047A3
:101F4000206A401C2062B8F10108F2D22046FEF758
:101F5000ECFE09B00320BDE8F08F206A284420621F
:101F600003E0D4E90121302090476D1EEBD3F8E760
:101F70007A6B000002FCFFFF10B5436913B1AFF3A9
:101F8000008001E0FEF7F4FE012010BD127800F1A0
:101F900024010A7000224A700122EDE711684FF017
:101FA000FF32E9E710B5436913B1AFF3008001E0F8
:101FB000FEF78AFF012010BD126800F12401426281
:101FC000002282620122EDE711684FF0FF32E9E75B
:101FD000007B00F0800070472DE9F05F0546174652
:101FE0000C46C86820F4201040F48000C8608006C9
:101FF00002D50846FFF729FAE06841F282014FF066
:10200000FF3A0140022903D02046FFF7BBF9B9E0AF
:1020100000F42041B1F5004F0FD1C00306D561682F
:10202000E06A884200D80846606006E02069E06205
:1020300060606069FEF7FCFDA061A0680022EEB25E
:1020400000280DDAE1688B050AD4C043A06041F492
:1020500090302260E0606068411C61600670AAE018
:10206000E0689146226040F40050E060206978BB4F
:102070006069FEF7CFFD04F124054FF00108A8B117
:10208000A08910F4407F08D0E069FEF7D7FD2061F9
:1020900018B1E06840F4006017E0C4F81C802561C6
:1020A000E06820F4407040F480600EE0E069FEF7E4
:1020B000C5FD00282061F0D0E06840F4006010F415
:1020C000407FE06002D140F48070E0602069606091
:1020D000E06825696FF0010BC1051ED56168E06AF3
:1020E000884200D80846411B04D022462846FFF704
:1020F00053F9E8BB1FB1E562C4E9015959E0681C16
:10210000E0626060E069401EA060E06840F48030FA
:10211000E06030462E70BDE8F09F17B100F48032C9
:102120000AE06068411C61600670E0680A2E40F4B5
:102130008030E06006D00022E16A6068814203D905
:102140000B4602E00122F7E70346B4F80CC05B1B24
:102150005FEA4C5C04D4D4F81CC09C4500DD02B39B
:10216000814200D80146002BA1EB0008E56200E0A7
:1021700008E0C4E9015907DD224619462846FFF761
:102180000BF908B15046C6E7B8F1000F09D0A169B4
:10219000E5626560A1EB0800A061E06840F0100016
:1021A000E06047B16168A069E562491B0844656069
:1021B000A0615846AFE73046ADE710B50146C268AA
:1021C000900703D0900607D5886A0AE0FFF758FA0F
:1021D00001210160881E10BD8B69486818440B6995
:1021E000C01A91F848301BB191F84910401A10BD3F
:1021F0001103FCD50028FADD401E10BD70B5C4687F
:10220000A50713D0650211D4B2F5807F09D0B2F5CD
:10221000007F06D0B2F5806F08D1012300F12401C0
:1022200006E05D1E6FF07F46B54201D3012070BD10
:102230000161C361416024F470611143C1600020F9
:1022400070BD2DE9F04116460C46054600F044F8F5
:10225000036893F80101012807D0FF2C12D8185DFC
:1022600080B101202C70BDE8F081D3F8070132461F
:10227000214603F20713C7182846BC46BDE8F041C3
:10228000012360474FF0FF30EDE710B500F076F91D
:10229000BDE8104000F06CB910B5431C02E010F826
:1022A000011B71B18107FAD14FF0013202C88C1ABB
:1022B0008C4314EAC211F9D0C01A0A0603D0C01E1A
:1022C00010BDC01A10BD0A0401D0801E10BD090245
:1022D000FCD0401E10BD000010B500F005F8001D38
:1022E00010BD00BF7164000000487047E01100207D
:1022F000034640688C46002818BF88423CBF03460E
:102300004068F8D318681844884207D00CF10300DD
:1023100020F00700001D411A521A0146081D0A60EC
:10232000FEF7BBBC2DE9F0411F46044603260168B9
:10233000072A01F4006004DB08B116A505E016A524
:1023400003E008B115A500E015A521F010002060FC
:10235000A069C01EA0610FB1401EA0612046FEF71B
:10236000CEFC4FB1D4E9012138469047206A401C89
:102370002062C01C206206E0206AFAE7D4E901214D
:1023800015F8010B9047761EF8D22046FEF7CDFCDB
:10239000BDE8F0814E414E006E616E00494E460030
:1023A000696E66002DE9F047814616468AB03548C9
:1023B00078440DC88DE80D0032487844801C03AC89
:1023C0000DC884E80D0041F69B300844372190FB8E
:1023D000F1F290FBF1F5A5F1800501FB12041B3C25
:1023E00002D56442012000E00020DFF898A080467A
:1023F0000027FA44AAF1BE0A0EE0E0070AD03246EE
:10240000684607EB470101230AEB810105F0C7FF8E
:102410008DE8070064107F1C002CEED1194F7F441B
:10242000AE3F19E0E80715D007EB04100DF1180ACC
:1024300090E80E008AE80E00C068F04201D19819B9
:1024400008903246012306A903A805F0A8FF03ABB4
:1024500083E807006D10641C002DE3D14FF00103E9
:1024600032466946B8F1000F03A802D005F082FF9A
:1024700001E005F094FFC9E90001C9F808200AB09D
:10248000BDE8F087DC6500002DE9FF5F8B461C4648
:102490008246029D05FB0BF5E5B1D4F8088057464E
:1024A0004FF00009B8F1000044DCE069A84227D2EF
:1024B000B9F1000F24D0224629463846A669FEF716
:1024C0006BFF58B1C4F80880A069801B3844A0EBAA
:1024D0000A0129E0002004B0BDE8F09FE16811F492
:1024E000C06F01D0002008E022696068801AE269AC
:1024F000101AC903A06001D44042A0600298EAE724
:10250000A84201D2012200E0002221463878FFF7DC
:1025100063FD411C06D0D4F80880002807DB6D1E3F
:102520007F1C17E0A7EB0A01B1FBFBF0D3E74FF0EC
:1025300001090FE0A842064600D92E463946324628
:102540006068FEF703FB6068AD1BA8EB060830442B
:1025500037446060002DA5D1C4F80880CEE710B5DF
:102560000446AFF300802046BDE81040FEF7ECB90A
:10257000002801D000F024B87047000010B50146D3
:1025800002A000F023F8012010BD0000534947527B
:10259000545245443A2052656469726563743A2026
:1025A00063616E2774206F70656E3A200000000032
:1025B00010B500F025F8BDE81040FFF7D9BF0000C6
:1025C00001491820ABBEFEE72600020070B50546A3
:1025D0000C460A2000E06D1C00F078F835B1287830
:1025E0000028F8D102E0641C00F070F814B12078E3
:1025F0000028F8D1BDE870400A2000F067B800005C
:1026000010B5012805D0002103A0FFF7DFFF01204E
:1026100010BD09A1F8E7000053494752544D454DFC
:102620003A204F7574206F662068656170206D6573
:102630006D6F7279000000003A2048656170206D6E
:10264000656D6F727920636F727275707465640066
:1026500030B44FF0013C50F8042B51F8043BCCFA55
:1026600052F4D51A20D1FCB950F8042B51F8043B90
:10267000CCFA52F4D51A17D1B4B950F8042B51F84A
:10268000043BCCFA52F4D51A0ED16CB950F8042B95
:1026900051F8043BCCFA52F4D51A05D1002CDAD00B
:1026A00030BC4FF00000704729BAB1FA81F111F047
:1026B0001801D1F120008440F2D1CA40CB4012F081
:1026C000FF0213F0FF0330BCD01A704708B569460B
:1026D0008DF800000320ABBE08BD000080B586B0B9
:1026E0000490039102920498C068C00720B9FFE7E4
:1026F0004FF0FF300590E0E00498C0684008C00744
:1027000020B9FFE74FF0FF300590D6E0039801387D
:1027100001460091052800F2C9800099DFE801F028
:10272000032C546C99B60498012101F097FA01909A
:102730009DF809004007002804D5FFE7049901200F
:10274000486503E0049900204865FFE7049A029970
:102750005068526D04F094F8049840689DF8041095
:1027600003F0B0FD0499002081F86C000499C8685A
:1027700040F00800C8609DE00498029901F06EFAEC
:10278000019004994868C96D03F076FA049A50687C
:10279000116D44F6D353C1F26203A1FB03318909E1
:1027A00092F8682003F03AFC049840689DF8041001
:1027B00003F088FD0499012081F86C000499C86831
:1027C00040F00400C86075E00498406803F034F9F4
:1027D0000498406803F02AF9049900204864049999
:1027E00008640499C8630499486304998863049849
:1027F000406803F041F95DE0049890F86C0001280E
:1028000005D1FFE70498406803F004FA04E0049857
:10281000406804F00DF8FFE7049890F86C00012878
:1028200005D1FFE70498406803F0E0F904E004985C
:10283000406803F0E9FFFFE70499002088610499EC
:102840004862049908640499886820F0010088604F
:1028500030E09DF80800000600280ED5FFE7049937
:10286000802081F86D00029800F00F02049991F821
:102870006D00104381F86D0007E0049991F86D0038
:1028800000F07F0081F86D00FFE713E0049890F8F6
:102890006C00012804D0FFE76FF0030005900CE006
:1028A00004984068029903F0CDFB03E06FF0030049
:1028B000059002E000200590FFE7059806B080BD76
:1028C00081B001200090009801B0704781B0009065
:1028D0000098006B01B0704782B00090009880684B
:1028E0000190019802B0704781B040F20420C0F21C
:1028F00008100090009801B07047000080B584B0C7
:10290000029001910198C068C00718B1FFE700204C
:1029100003902AE00199002000904865019A502117
:10292000D165019AD16D01F07F01D165019A916D58
:1029300001F07F0191650199C8630199486401998B
:1029400048630199886301990874029801990860A5
:1029500003F032F801460098019A1165019AD16896
:1029600041F00101D1600390FFE7039804B080BDFE
:1029700080B586B084460898CDF810C003910292C5
:1029800001938DF803000498C068C00720B9FFE7E1
:102990004FF0FF30059091E00498C0684008C007F0
:1029A00020B9FFE74FF0FF30059087E09DF8030066
:1029B000C00720B1FFE76FF0030005907EE00298AA
:1029C00050B1FFE7019838B1FFE7039820F4806029
:1029D000B0F5806F04D3FFE76FF0040005906DE061
:1029E0000498C0688008C00720B9FFE74FF0FF30A7
:1029F000059063E00498007AC00720B1FFE76FF00C
:102A0000010005905AE00499886840F00100886050
:102A10000499886840F0020088600499886840F052
:102A2000040088600499886820F010008860049988
:102A3000886820F020008860029804990862019854
:102A400004994862049900208862049908630499F3
:102A5000C862049988630499022008640498406855
:102A600002F0E4FF049890F86D000006002819D5E4
:102A7000FFE7029804994861049991F86D0000F00D
:102A80000F00886104990020C8610499012081F831
:102A90004C000498039901F01BFA0498406803F075
:102AA000D7F808E00498039901F012FA04984068F6
:102AB00003F0CEF8FFE700200590FFE7059806B089
:102AC00080BD000080B588B084460A98CDF818C053
:102AD0000591049203938DF80B000698C068C00717
:102AE00020B9FFE74FF0FF3007906FE00698C0680D
:102AF0004008C00720B9FFE74FF0FF30079065E0BE
:102B00009DF80B00C00720B1FFE76FF003000790AE
:102B10005CE0049850B1FFE7039838B1FFE70598EF
:102B200020F48060B0F5806F04D3FFE76FF00400FD
:102B300007904BE00698C0688008C00720B9FFE7FF
:102B40004FF0FF30079041E00698007AC00720B1AF
:102B5000FFE76FF00100079038E00699886840F0C1
:102B6000010088600699886840F002008860069934
:102B7000886820F0040088600699886820F01000BA
:102B800088600699886820F02000886006990020F7
:102B90000190C86106990863069948630699012067
:102BA00008640698059901F093F90698406802F0C8
:102BB0003DFF049806994861039806998861069834
:102BC000406803F04FF801980790FFE7079808B0B6
:102BD00080BD000080B584B0029001910298009001
:102BE000002853D0FFE70098012800F08680FFE717
:102BF0000098022840F08580FFE70198C068C00770
:102C000020B9FFE74FF0FF3003907DE00198C068E6
:102C10004008C00718B1FFE70020039074E0019856
:102C2000006F02F03FFE0198406802F005FF019836
:102C3000406802F0EFFF0198406802F0D7FF01986A
:102C4000406803F0F5FD0198406803F0DDFD019850
:102C5000406E02F017FA0198016E406E02F0B8FA69
:102C60000198406E02F088FA0199486891F86E1058
:102C700003F062FD0199486891F86F1003F038FB8A
:102C80000199C86840F00200C8603AE00198C06845
:102C90004008C00718B9FFE70020039034E001980E
:102CA00090F86C00012809D1FFE70198406802F014
:102CB000B1FF0198406802F099FF08E00198406870
:102CC00003F0B6FD0198406803F09EFDFFE7019810
:102CD000406E02F003FA0198406E02F0D3F90198B9
:102CE000406802F0A9FE0198006F02F0B3FC019960
:102CF000C86820F00200C86003E06FF00300039092
:102D000002E000200390FFE7039804B080BD0000BC
:102D100080B586B00490039102920498C068C00701
:102D200020B9FFE74FF0FF30059056E00498C068E7
:102D30004008C00720B9FFE74FF0FF3005904CE096
:102D4000039818B1FFE7029820B9FFE76FF004007D
:102D5000059042E00498C068C008C00720B9FFE7AA
:102D60004FF0FF30059038E00498007AC00720B19A
:102D7000FFE76FF0010005902FE00499886840F0AC
:102D8000010088600499886820F002008860049936
:102D9000886840F0040088600499886820F020006A
:102DA0008860049900200190886204990863049A5D
:102DB00004211164049988630498406802F036FE87
:102DC000039804990862029804994862049840683C
:102DD00003F042FD01980590FFE7059806B080BD1D
:102DE00080B586B00490039102920498C068C00731
:102DF00020B9FFE74FF0FF3005905BE00498C06812
:102E00004008C00720B9FFE74FF0FF30059051E0C0
:102E1000039818B1FFE7029820B9FFE76FF00400AC
:102E2000059047E00498C068C008C00720B9FFE7D4
:102E30004FF0FF3005903DE00498007AC00720B1C4
:102E4000FFE76FF00100059034E00499886840F0D6
:102E5000010088600499886820F002008860049965
:102E6000886820F0040088600499886820F01000C9
:102E700088600499886820F0200088600499002008
:102E80000190C86104990863049948630499032078
:102E900008640498406802F0C9FD039804994861E9
:102EA0000298049988610498406803F0DFFC019857
:102EB0000590FFE7059806B080BD000084B0029041
:102EC000002001900298C068C00718B9FFE70020F1
:102ED00003904CE00298C0684008C00720B1FFE7AB
:102EE0004FF0FF30039042E00299002000904861CB
:102EF000029988610299C86102990863029948633E
:102F00000299086202994862029988620299C8622D
:102F10000299886302990874029948640299C86307
:102F200002990864029A916821F001019160029A65
:102F3000916821F002019160029A916821F00401E8
:102F40009160029A916821F010019160029A916853
:102F500021F020019160029948650299C8650299A3
:102F6000C86820F00100C86001980390FFE703984B
:102F700004B0704780B582B0019001994EF6905030
:102F8000CEF2000000F002F802B080BD82B00190E5
:102F9000009100980199886001990020086102B0B1
:102FA00070470000BFF35F8F4EF62451CEF2000150
:102FB000086820F4803008604EF69451CEF200018B
:102FC000086820F001000860BFF34F8FBFF36F8FD8
:102FD0007047000081B00090BFF35F8F009840F011
:102FE00001004EF69451CEF2000108604EF62451D5
:102FF000CEF20001086840F480300860BFF34F8FC4
:10300000BFF36F8F01B0704780B584B00390029119
:1030100001920399029A019B4EF69050CEF2000065
:1030200000F002F804B080BD80B588B0079006912A
:103030000592049302200390049801280AD1FFE727
:1030400006980799886007980C300599022200F0CD
:1030500041F83CE0069820F003000290069800F04A
:1030600003000190029807998860FFE7019804998E
:103070000844052820D3FFE70198C0F10400009020
:103080000798019900EBC1000C300599009A520095
:1030900000F020F80099059800EBC1000590009918
:1030A0000498401A04900020019002980430029085
:1030B000029807998860D9E70798019900EBC10049
:1030C0000C300599049A520000F004F8FFE708B0AC
:1030D00080BD000084B00390029101920020009016
:1030E000FFE70098019988420CD2FFE70298009A06
:1030F00050F82200039941F82200FFE700980130C0
:103100000090EEE704B0704780B582B08DF80700FC
:103110008DF806109DF807109DF806204EF6905089
:10312000CEF2000000F002F802B080BD84B003903F
:103130008DF80B108DF80A209DF80B0080088DF893
:1031400009009DF80B0000F00300C00001900199F8
:10315000FF20884000909DF80900022801D3FFE776
:1031600014E003989DF8091000EB8100006B009AB1
:1031700090439DF80A10019B99401140084403991F
:103180009DF8092001EB82010863FFE704B0704756
:1031900080B540F20C01C2F20001002000F012FBE9
:1031A00080BD000080B540F20C01C2F200010A208F
:1031B00000F008FB80BD000080B540F20C01C2F2B7
:1031C00000010B2000F0FEFA80BD000080B540F247
:1031D0000C01C2F200010C2000F0F4FA80BD0000E6
:1031E00080B540F20C01C2F200010D2000F0EAFAB5
:1031F00080BD000080B540F20C01C2F200010E203B
:1032000000F0E0FA80BD000080B540F20C01C2F28F
:1032100000010F2000F0D6FA80BD000080B540F21A
:103220000C01C2F20001102000F0CCFA80BD0000B9
:1032300080B540F20C01C2F20001112000F0C2FA88
:1032400080BD000080B540F20C01C2F200011220E6
:1032500000F0B8FA80BD000080B540F20C01C2F267
:103260000001132000F0AEFA80BD000080B540F2EE
:103270000C01C2F20001012000F0A4FA80BD0000A0
:1032800080B540F20C01C2F20001142000F09AFA5D
:1032900080BD000080B540F20C01C2F20001152093
:1032A00000F090FA80BD000080B540F20C01C2F23F
:1032B0000001162000F086FA80BD000080B540F2C3
:1032C0000C01C2F20001172000F07CFA80BD000062
:1032D00080B540F20C01C2F20001182000F072FA31
:1032E00080BD000080B540F20C01C2F2000119203F
:1032F00000F068FA80BD000080B540F20C01C2F217
:1033000000011A2000F05EFA80BD000080B540F296
:103310000C01C2F200011B2000F054FA80BD000035
:1033200080B540F20C01C2F200011C2000F04AFA04
:1033300080BD000080B540F20C01C2F200011D20EA
:1033400000F040FA80BD000080B540F20C01C2F2EE
:103350000001022000F036FA80BD000080B540F286
:103360000C01C2F200011E2000F02CFA80BD00000A
:1033700080B540F20C01C2F200011F2000F022FAD9
:1033800080BD000080B540F20C01C2F200010320B4
:1033900000F018FA80BD000080B540F20C01C2F2C6
:1033A0000001042000F00EFA80BD000080B540F25C
:1033B0000C01C2F20001052000F004FA80BD0000FB
:1033C00080B540F20C01C2F20001062000F0FAF9CB
:1033D00080BD000080B540F20C01C2F20001072060
:1033E00000F0F0F980BD000080B540F20C01C2F29F
:1033F0000001082000F0E6F980BD000080B540F231
:103400000C01C2F20001092000F0DCF980BD0000CF
:1034100080B540F20C00C2F2000000F049F980BD16
:1034200080B540F24C61C2F20001002000F0CAF900
:1034300080BD000080B540F24C61C2F200010A205C
:1034400000F0C0F980BD000080B540F24C61C2F2CE
:1034500000010B2000F0B6F980BD000080B540F2FD
:103460004C61C2F200010C2000F0ACF980BD0000FC
:1034700080B540F24C61C2F200010D2000F0A2F9CB
:1034800080BD000080B540F24C61C2F200010E2008
:1034900000F098F980BD000080B540F24C61C2F2A6
:1034A00000010F2000F08EF980BD000080B540F2D1
:1034B0004C61C2F20001102000F084F980BD0000D0
:1034C00080B540F24C61C2F20001112000F07AF99F
:1034D00080BD000080B540F24C61C2F200011220B4
:1034E00000F070F980BD000080B540F24C61C2F27E
:1034F0000001132000F066F980BD000080B540F2A5
:103500004C61C2F20001012000F05CF980BD0000B6
:1035100080B540F24C61C2F20001142000F052F973
:1035200080BD000080B540F24C61C2F20001152060
:1035300000F048F980BD000080B540F24C61C2F255
:103540000001162000F03EF980BD000080B540F279
:103550004C61C2F20001172000F034F980BD000078
:1035600080B540F24C61C2F20001182000F02AF947
:1035700080BD000080B540F24C61C2F2000119200C
:1035800000F020F980BD000080B540F24C61C2F22D
:1035900000011A2000F016F980BD000080B540F24D
:1035A0004C61C2F200011B2000F00CF980BD00004C
:1035B00080B540F24C61C2F200011C2000F002F91B
:1035C00080BD000080B540F24C61C2F200011D20B8
:1035D00000F0F8F880BD000080B540F24C61C2F206
:1035E0000001022000F0EEF880BD000080B540F23E
:1035F0004C61C2F200011E2000F0E4F880BD000022
:1036000080B540F24C61C2F200011F2000F0DAF8F0
:1036100080BD000080B540F24C61C2F20001032081
:1036200000F0D0F880BD000080B540F24C61C2F2DD
:103630000001042000F0C6F880BD000080B540F213
:103640004C61C2F20001052000F0BCF880BD000012
:1036500080B540F24C61C2F20001062000F0B2F8E1
:1036600080BD000080B540F24C61C2F2000107202D
:1036700000F0A8F880BD000080B540F24C61C2F2B5
:103680000001082000F09EF880BD000080B540F2E7
:103690004C61C2F20001092000F094F880BD0000E6
:1036A00080B540F24C60C2F2000000F001F880BD2D
:1036B00080B586B005900598843004900020029073
:1036C0000598006802F0D2F8A8B3FFE700208DF853
:1036D0000700FFE79DF8070007282BDCFFE70498A9
:1036E0009DF8071002F09EF8039004989DF80710CB
:1036F00002F0AAF88DF80600039800F099F80598F2
:103700009DF8061000EB8100406860B1FFE7059866
:103710009DF8061000EB81004268039890F918109C
:1037200002209047FFE7FFE79DF8070001308DF882
:103730000700CFE7FFE700208DF80700FFE79DF8BF
:10374000070007283BDCFFE7059800689DF8071095
:1037500002F04AF860B3FFE79DF807000290059970
:1037600002A800F0EBF804989DF8071002F05AF850
:10377000039004989DF8071002F066F88DF8060093
:10378000039800F055F805989DF8061000EB8100AD
:10379000406860B1FFE705989DF8061000EB8100D6
:1037A0004268039890F9181002209047FFE7FFE75E
:1037B000FFE79DF8070001308DF80700BFE706B06E
:1037C00080BD000080B586B08DF817000491049884
:1037D0008430039003989DF81710084490F88005F2
:1037E0008DF80700049800689DF8171001F0BCFFE1
:1037F00003989DF8071002F015F80290029800F067
:1038000017F804989DF8171000EB8100406860B12C
:10381000FFE704989DF8171000EB810042680298BA
:1038200090F9181001209047FFE706B080BD000016
:1038300080B58AB000900098006828B1FFE7009832
:103840000068022878D1FFE70098006900F026F9A7
:10385000014600988068029101900298019901F058
:10386000F9F9002862D0FFE70198B0F5003F29DAA6
:10387000FFE702990198069105900598012820DB41
:10388000FFE70598069901F01F0108440490069887
:103890000390BFF34F8FFFE703984EF65C71CEF2B3
:1038A00000010860039820300390049820380490A9
:1038B00004980028F0DCFFE7BFF34F8FBFF36F8F52
:1038C000FFE732E04EF68451CEF20001002008609E
:1038D000BFF34F8F4EF68050CEF200000068099083
:1038E0000998C0F34E300890FFE70998C0F3C9006B
:1038F0000790FFE708990798800761F34D104EF68F
:103900007471CEF2000108600798411E079108B15A
:103910002FF011C00898411E089108B12FF01BC864
:10392000BFF34F8FBFF36F8FFFE704E0BFF34F8FFD
:10393000BFF36F8FFFE7FFE70AB080BD80B58CB0A3
:103940000A90099109988430089000208DF817009A
:103950000DF1170101910290012003900998D0F810
:103960002C064008C00720B9FFE74FF0FF300B904E
:1039700087E00A9820B9FFE76FF004000B9080E021
:103980000A980068082806DCFFE70A980068B0F18A
:10399000FF3F04DCFFE76FF006000B9071E072B6AA
:1039A0000A9800688DF8160008989DF8161001F026
:1039B0004BFF8DF81500099800689DF8161001F06E
:1039C00021FF0490049820B9FFE762B600200B9015
:1039D00057E00998006801F0DBFE28B1FFE762B606
:1039E0006FF001000B904CE001A801F0C9FE00222D
:1039F00007929DF817008DF81E009DF816109DF88F
:103A00001D0001F0070100F0F80008448DF81D00CA
:103A10009DF81C0040F001008DF81C00099800681A
:103A2000079901F0CFFEFFE7099800689DF816108E
:103A300001F0E8FE0490049808B9FFE700E0F3E71E
:103A4000099800689DF8151001F0ACFE099800680F
:103A50009DF8151001F088FE0998D0F834069DF8FD
:103A60001510084401F06EFB08989DF8161001F03F
:103A7000D9FE06900698FFF7DBFE62B600200B9099
:103A8000FFE70B980CB080BDFFE7FEE7FFE7FEE71E
:103A900041F2BC00C2F200000068704783B00190A0
:103AA000019800900098B0F1B14F0DD3FFE7009856
:103AB0004FF6FF71C5F68301884205D8FFE70098ED
:103AC000A0F16250029014E00098B0F1B04F0DD315
:103AD000FFE700984FF6FF71C5F60301884205D84D
:103AE000FFE7009800F12840029002E00098029061
:103AF000FFE7029803B0704780B582B00190009153
:103B00000199009A40F68C40C2F20000FEF7E6FDF3
:103B100002B080BD80B540F68C40C2F20000FEF7D6
:103B2000D5FE80BD80B582B040F68C40C2F2000068
:103B3000FEF7D2FE0190019802B080BD80B540F63C
:103B40008C40C2F2000000F083F980BD80B582B0E5
:103B50000190019840F68C41C2F20001FEF7CEFEC2
:103B600002B080BD80B586B00590049103928DF8B7
:103B70000B300599049A039B9DF80B0000F001009F
:103B8000EC46CCF8000040F68C40C2F20000FEF794
:103B9000EFFE06B080BD000080B586B005900491B0
:103BA00003928DF80B300599049A039B9DF80B0046
:103BB00000F00100EC46CCF8000040F68C40C2F268
:103BC0000000FEF77FFF06B080BD000080B582B028
:103BD0000190019840F68C41C2F20001FEF7FAFF15
:103BE00002B080BD80B582B0019000910199009A29
:103BF00040F68C40C2F20000FFF78AF802B080BDA8
:103C000080B582B0019000910199009A40F68C40F5
:103C1000C2F20000FFF7E4F802B080BD80B540F6C4
:103C20008C40C2F20000FFF749F980BD80B540F634
:103C30000050C2F2000000F00BF980BD80B540F6E4
:103C40007450C2F2000000F003F980BD80B540F668
:103C5000E850C2F2000000F0FBF880BD85B0039090
:103C60000291029801380146009103281CD800995E
:103C7000DFE801F002080E140220019003990120F0
:103C8000886615E0042001900399022088660FE001
:103C90000420019003990320886609E00620019022
:103CA00003990420886603E06FF00300049002E0AB
:103CB00001980490FFE7049805B0704780B584B080
:103CC00003900398103002900398083001900298F6
:103CD000806BC00750B1FFE70199086820F0010030
:103CE00008600398016801208847ACE00298806B67
:103CF0008006002805D5FFE7039801682020884743
:103D0000A0E00298806BC005002806D5FFE7039865
:103D100001684FF48070884793E00298806B4007F9
:103D200000280AD5FFE70398016804208847019915
:103D3000086820F00100086082E00298806B0007AC
:103D400000280AD5FFE703980168082088470199F1
:103D5000086820F00100086071E00298806BC006DE
:103D600000280AD5FFE703980168102088470199C9
:103D7000086820F00100086060E00298806B40064F
:103D800000280FD5FFE70199086840F0100008608F
:103D900003980168402088470199086820F00100D5
:103DA00008604AE00298806B000600280FD5FFE704
:103DB0000199086840F0200008600398016880209D
:103DC00088470199086820F00100086034E00298F3
:103DD000806B800700280AD5FFE70398016802205E
:103DE00088470199086820F00100086023E00298E4
:103DF000806B800500280BD5FFE7039801684FF41E
:103E0000007088470199086820F00100086011E0FF
:103E10000298806B400500280BD5FFE703980168E6
:103E20004FF4806088470199086820F0010008601D
:103E3000FFE7FFE7FFE7FFE7FFE7FFE7FFE7FFE752
:103E4000FFE7FFE7FFE702990020886304B080BD29
:103E500080B582B00190019810300090019890F8E0
:103E60006C00012817D1FFE70098006B012806D1EC
:103E7000FFE701984068009902F0F6F8FFE7009824
:103E8000006B022806D1FFE701984068009901F015
:103E90000FFFFFE716E00098006B032806D1FFE74D
:103EA00001984068009902F0A3FDFFE70098006BBD
:103EB000042806D1FFE701984068009902F006FD4A
:103EC000FFE7FFE70198FFF7F9FE02B080BD0000B1
:103ED00080B582B001900091009820F48060019933
:103EE000C96D88421BD0FFE79DF8010040070028FC
:103EF00004D5FFE701990120486503E001990020FE
:103F00004865FFE7019B009958685A6D1B6C02F0E9
:103F1000D5FB009820F480600199C865FFE702B0E6
:103F200080BD000080B584B0039002910192039897
:103F30000299019A40F67863C2F2000300F08AF811
:103F400004B080BD80B540F67860C2F2000000F099
:103F5000C7FA80BD80B582B040F67860C2F200003A
:103F600000F0C4FA0190019802B080BD80B540F61F
:103F70007860C2F2000000F0C1FA80BD80B540F662
:103F80007860C2F2000000F0E9FA80BD80B584B02C
:103F9000039040F67860C2F2000001900290022087
:103FA00000F0BCFA029909694860002000F074FA38
:103FB0000199029A12699060039800F02DFB04B0F9
:103FC00080BD000080B582B00190019840F6786114
:103FD000C2F2000100F086FB02B080BD80B582B065
:103FE000019000910198009940F67862C2F20002B7
:103FF00000F02EFC02B080BD80B582B0019000912F
:104000000198009940F67862C2F2000200F09EFC2E
:1040100002B080BD80B540F67860C2F2000000F0CA
:104020003DFD80BD80B540F6D860C2F2000000F0D2
:1040300095FA80BD80B540F63870C2F2000000F0FD
:104040008DFA80BD80B540F69870C2F2000000F095
:1040500085FA80BD80B58CB00A90099108920793CB
:104060000020ADF81A008DF819000590ADF8120087
:10407000079880684008C00720B9FFE74FF0FF307D
:104080000B90FDE19DF828000138014603910728B7
:1040900000F2D0800399DFE801F0040B125BCCCC76
:1040A000A4B8079801694069497C02F08BFFC5E01C
:1040B000079801694069097C02F070FFBEE0099829
:1040C00001281DD1FFE70798406902F0FBFD079822
:1040D00001694069C96802F07FFF079800690078AC
:1040E000C00740B1FFE70798016940694A688968DD
:1040F00002F036FDFFE70798406903F0A1F824E0DD
:104100000998E8B9FFE70798406903F0A1F8079814
:10411000406903F08BF80798406902F069FD079841
:1041200000690078C00728B1FFE70798406902F0EE
:104130000DFDFFE70799486820F00100486003E0A3
:104140004FF0FF300B909BE1FFE700200B9097E1D1
:10415000099801281DD1FFE70798406902F0AAFDE0
:10416000079801694069C96802F022FF0798006951
:104170000078C00740B1FFE70798016940694A68C5
:10418000896802F0EDFCFFE70798406902F0DEFE67
:1041900024E00998E8B9FFE70798406902F0DEFEDD
:1041A0000798406902F0C8FE0798406902F0F6FCE3
:1041B000079800690078C00728B1FFE707984069B1
:1041C00002F0C4FCFFE70799486820F0020048604D
:1041D00003E04FF0FF300B9052E1FFE700200B901F
:1041E0004EE10798406903F033F80798406902F000
:1041F000FFFC0798406902F065FD0799486820F0C8
:104200000100486000200B903AE10798406902F0F5
:10421000A5FE0798406902F0C1FC0798406902F0CA
:1042200049FD0799486820F00200486000200B9083
:1042300026E1FFE76FF003000B9021E19DF82900D4
:1042400000F0010007990969097801F0010188422D
:1042500004D0FFE76FF003000B9011E10A9800F41F
:1042600000700146029128B1FFE70298B0F5007F87
:1042700001D00AE00DE09DF82900C00720B1FFE75A
:104280006FF006000B90FBE003E06FF006000B9070
:10429000F6E00A9800F4E050B0F5806F01D1FFE736
:1042A00003E06FF007000B90EAE00A9800F4783121
:1042B000012000EB51308DF819009DF819000C38E1
:1042C00001460191142826D80199DFE801F00B245A
:1042D000242410242424152424241A2424242424CB
:1042E00024241F00079801690120C86017E007987F
:1042F00001690220C86012E0079801690320C860C4
:104300000DE0079801690420C86008E0079801697A
:104310000520C86003E06FF008000B90B0E09DF846
:104320002A004007002801D4FFE703E06FF00900EE
:104330000B90A5E09DF82A000007002808D5FFE7AC
:10434000079991F8400040F0010081F84000FFE734
:1043500009986FF39F20ADF81A00BDF81A009DF878
:104360001910B0EB410F04D0FFE76FF010000B9075
:1043700086E00898000330B1FFE708986FF31F50FC
:104380000799C86003E06FF00D000B9078E00A9881
:1043900000F040700146009150B1FFE70098B0F185
:1043A000807F1DD0FFE70098B0F1007F1CD050E067
:1043B000079800690078C00708B9FFE74DE0079843
:1043C0008069002103F076FB079800F03DFB059023
:1043D000059820B1FFE74FF0FF300B9050E03CE034
:1043E0006FF003000B904BE007988069012103F008
:1043F00061FB079800690078C00728B3FFE70798BA
:104400008069012103F056FB0898000DADF81200F9
:10441000BDF81200B0F5806F04DBFFE76FF00F000E
:104420000B902DE0BDF81200012805DCFFE707988E
:10443000806900F0BDFF06E007988069BDF81210A2
:1044400003F094FBFFE703E06FF003000B9017E02D
:1044500003E06FF00E000B9012E09DF82A0010F0C0
:10446000300F06D1FFE79DF82A000006002804D58A
:10447000FFE76FF003000B9002E000200B90FFE7D6
:104480000B980CB080BD000081B040F28B200090F2
:10449000009801B07047000083B08DF80B009DF8C4
:1044A0000B0001460091042814D80099DFE801F0C0
:1044B0000306090C0F00002001900EE0012001907E
:1044C0000BE00220019008E00320019005E00420A9
:1044D000019002E005200190FFE7019803B07047CA
:1044E00081B000900098406A01B0704782B000909F
:1044F000009840680190019802B0704781B0009028
:104500000098006A01B0704781B040F20210C0F21A
:1045100003300090009801B07047000083B08DF820
:104520000B009DF80B000146009140B1FFE7009899
:10453000012807D0FFE70098022806D008E00020F5
:10454000019008E00120019005E00220019002E0C6
:1045500003200190FFE7019803B0704780B582B057
:10456000019001982030009001984068C007D0B1B8
:10457000FFE701984069009902F044FD00988069C6
:10458000C00778B1FFE70199486820F00100486052
:104590000099886920F00100886101980168012074
:1045A0008847FFE7FFE7019840684008C00780B3ED
:1045B000FFE701984069009902F098FB0098806934
:1045C000800700280FD5FFE70199486820F0020016
:1045D00048600099886920F00200886101980168AC
:1045E00002208847FFE700988069400700280FD520
:1045F000FFE70099886920F0040088610199486804
:1046000040F0080048600198016808208847FFE7EB
:10461000FFE702B080BD000086B004900391002047
:1046200002908DF807000398007AC00718B1FFE7E1
:104630000020059053E09DF80700C00738B9FFE758
:10464000049820B9FFE76FF00400059047E0039855
:1046500000694068032804D3FFE76FF00400059069
:104660003DE0039800698068052804D3FFE76FF0F8
:104670000400059033E003980069007C102804DBF7
:10468000FFE76FF00400059029E003980069407C83
:10469000102804DBFFE76FF0040005901FE004988A
:1046A000039908600399002000904860039908630B
:1046B00003990862039988620399C8620399486361
:1046C00003994862039981F83C0003998863039930
:1046D000886840F00100886002980590FFE705981F
:1046E00006B0704780B584B0029001910198007ABD
:1046F000C00720B9FFE74FF0FF300390A4E0029815
:10470000009048B1FFE70098012800F09580FFE78E
:104710000098022850D090E0019880684008C007B7
:1047200018B9FFE7002003908EE00198C06900F0FF
:10473000EFFC0198406902F0CDFA0198406902F05F
:1047400055FC0198406902F0F7FB0198406902F0BE
:104750006DFD0198C06900F0ABFC0198406902F062
:104760001DFA0198406902F043FA0199002048605F
:10477000019800690078C00728B1FFE701984069F7
:1047800002F0E4F9FFE70198406902F0FDF90198B1
:10479000806900F071FF019800690078C00728B1B6
:1047A000FFE70198806900F0A3FFFFE7019988689F
:1047B00020F00200886044E0019880684008C0074B
:1047C00018B1FFE7002003903EE001990020486007
:1047D000019800690078C00750B1FFE7019880692F
:1047E000002103F067F90198806901F0A9F8FFE75B
:1047F0000198806901F068F80198406902F014FAA4
:104800000198406902F0CAF90198406902F0F0F994
:104810000198C06900F04CFC01980169C069896980
:1048200000F0F2FC0198C06900F0BCFC01998868B6
:1048300040F00200886004E0FFE76FF0030003909F
:1048400002E000200390FFE7039804B080BD000061
:1048500080B584B0029001910092029818B1FFE7F0
:10486000019820B9FFE76FF0040003906BE0009817
:1048700080684008C00720B9FFE74FF0FF30039081
:1048800061E0009840684008C00720B1FFE76FF082
:104890000100039057E000980069406848B9FFE7BD
:1048A0009DF80800C00720B1FFE76FF004000390F7
:1048B00049E000980069406848B1FFE79DF80800AA
:1048C000800720B1FFE76FF0040003903BE0009900
:1048D000486840F0020048600099486820F00800ED
:1048E0004860029800994863009900204862009847
:1048F0000069C06858B1FFE700980069C0680228E5
:1049000005D8FFE7019840000099C86204E00198CB
:1049100080000099C862FFE7009890F84000C00747
:1049200028B1FFE70099012081F83C0004E00099DC
:10493000002081F83C00FFE70098406902F0ACF9E4
:1049400000200390FFE7039804B080BD80B584B0D9
:10495000029001910092029818B1FFE7019820B9E6
:10496000FFE76FF0040003906AE000988068400859
:10497000C00720B9FFE74FF0FF30039060E00098D8
:104980004068C00720B1FFE76FF00100039057E0D7
:1049900000980069406848B9FFE79DF80800C00723
:1049A00020B1FFE76FF00400039049E00098006930
:1049B000406848B1FFE79DF80800800720B1FFE795
:1049C0006FF0040003903BE00099486840F001005C
:1049D00048600099486820F00400486002980099F7
:1049E000086300990020086200980069C06858B107
:1049F000FFE700980069C068022805D8FFE7019822
:104A000040000099886204E0019880000099886263
:104A1000FFE7009890F84000C00728B1FFE7009931
:104A2000012081F83C0004E00099002081F83C005E
:104A3000FFE70098406902F0A3FA00200390FFE727
:104A4000039804B080BD000080B584B002900020BF
:104A5000019000900298C06820B9FFE74FF0FF3046
:104A6000039018E00299C8680969496802F000F9E2
:104A700001900298026980690199526903F0FEF879
:104A80000090009820B1FFE74FF0FF30039002E064
:104A900000200390FFE7039804B080BD81B0009030
:104AA000009900200860009981F840000099486052
:104AB000009A916821F001019160009908630099C2
:104AC0000862009988620099C86200994863009959
:104AD0004862009981F83C000099886301B07047F2
:104AE00080B540F6F870C2F20000FFF737FD80BDD8
:104AF00080B541F23C00C2F2000000F089F880BDB0
:104B000080B584B04EF69050CEF20000039003982A
:104B10000068000A029000200190FFE701980299C6
:104B2000884208D2FFE70198FEF724FAFFE70198D0
:104B300001300190F2E704B080BD000080B582B082
:104B4000002001902221FEF7DFFA01200421FEF768
:104B5000DBFA0220FF21FEF7D7FA0320AA21FEF795
:104B6000D3FA019848F60421C8F200010922FEF7A1
:104B70004BFA02B080BD000080B54EF69450CEF2E4
:104B800000000068C00718B1FFE7FEF70BFAFFE767
:104B9000FFF7B6FFFFF7D2FF0620FEF71BFA80BD36
:104BA00080B582B00190019808300090019840686B
:104BB000009902F097FC0098C068012808D1FFE72F
:104BC00000990020C8600198016804208847FFE729
:104BD00002B080BD80B541F27C00C2F20000FFF758
:104BE000DFFF80BD80B541F27C00C2F2000000F022
:104BF00001F880BD80B582B001900198406802F054
:104C000089FC019801680120884702B080BD00003E
:104C100080B582B0019001980830009001984068FA
:104C2000009902F081FC0098C068022808D1FFE7D3
:104C300000990020C8600198016802208847FFE7BA
:104C400002B080BD80B541F27C00C2F20000FFF7E7
:104C5000DFFF80BD87B0039002910398069006980D
:104C6000059005990120B1F1007F019011D3FFE774
:104C700005990020B1F1005F009007D9FFE7059882
:104C8000B0F1085F5FEA2F900090FFE70098019075
:104C9000FFE70198C00720B1FFE700208DF813005F
:104CA00003E001208DF81300FFE79DF8130007B023
:104CB000704700000348044980F30A8881F308889C
:104CC00000F004F800E003200000042000F0BEF82B
:104CD000FBF776FD4EF6D851CEF2000100200860B9
:104CE00044F20000C2F2000020F01F004EF6DC513A
:104CF000CEF20001086048F20000C2F20000411E3E
:104D0000012060F304014EF6E052CEF20002116081
:104D10004EF6D051CEF200010860704780B582B0E7
:104D20000020ADF8060044F20000C2F20000016865
:104D3000498E41F6B012C2F2000211800068008E66
:104D400041F6B611C2F200010880FFE744F200000C
:104D5000C2F200000068408E68B1FFE744F2000133
:104D6000C2F200010868408EADF80400BDF80400EE
:104D700009684886EAE7FFE744F20000C2F2000053
:104D80000068008E68B1FFE744F20001C2F2000142
:104D90000868008EADF80200BDF8020009680886B8
:104DA000EAE741F6B010C2F20000008840B1FFE728
:104DB00044F20000C2F20000062100F001FEFFE70D
:104DC00041F6B610C2F200000088C00738B1FFE714
:104DD00041F6A811C2F2000101200880FFE741F668
:104DE000B610C2F2000000888007002804D5FFE753
:104DF0000220ADF80600FFE744F20000C2F2000016
:104E000041F270414058E0B1FFE741F6A810C2F20C
:104E10000000008820B9FFE7BDF8060080B1FFE779
:104E200044F20000C2F2000041F27041425841F6E3
:104E3000A810C2F200000088BDF806109047FFE7F6
:104E4000FFE702B080BD00007047000080B540F26F
:104E50000000C8F200004EF60851CEF200010860D2
:104E60004EF62451CEF20001086840F4702008602C
:104E700000F03EF844F21001C1F66021086820F409
:104E8000807008604EF68851CEF20001086840F448
:104E9000700008604EF20401CEF2010140F2E5100C
:104EA0000860FFF769FE4EF61451CEF20001086863
:104EB00040F4302008604EF20801CEF2000108688C
:104EC00020F020000860BFF34F8FBFF36F8F02F018
:104ED000F5FC41F2C001C2F2000146F60000C0F646
:104EE0008910086000F0D4FC00F0C8FC80BD000010
:104EF000704700008DB04EF20450CEF20100006801
:104F000000F00F0001900198411D012000FA01F10D
:104F100003914EF20461CEF20101096801F00F0124
:104F20000191019905318840029000200090FFE72F
:104F30000098002840F0A480FFE7009800EB4001B3
:104F400048F64C20C8F2000000EB81008068012880
:104F500021D1FFE7009800EB400148F64C20C8F251
:104F6000000050F8211001F16041029AB1FBF2F10A
:104F70000C91009901EB410100EB8100406800F1C8
:104F800060400299B0FBF1F00B904EF20060CEF25F
:104F9000010004901CE0009800EB400148F64C2012
:104FA000C8F2000050F82110039AB1FBF2F10C9105
:104FB000009901EB410100EB810040680399B0FBCF
:104FC000F1F00B904EF20050CEF201000490FFE79A
:104FD0000C9840090A900B98400909900C9800F031
:104FE0001F0008900B9800F01F0007900A9809997D
:104FF000884214D1FFE70798C0F11F004FF0FF313E
:1050000021FA00F0089A914008400690069A049808
:105010000A9900EB81010869104308612BE00899A7
:105020004FF0FF3000FA01F106910799C1F11F011D
:10503000C8400590069804990A9A01EB820108611C
:10504000FFE70A980999013988420BD0FFE70A98CF
:1050500001300A9004980A9900EB81014FF0FF306B
:105060000861EEE7059A0498099900EB8101086947
:1050700010430861FFE7FFE700980130009057E711
:105080000DB0704781B00090009800280DD4FFE764
:10509000009901F01F02012090404A094EF2802140
:1050A000CEF2000141F82200FFE701B07047000096
:1050B00081B00090009800280DD4FFE7009901F01E
:1050C0001F02012090404A094EF28021CEF20001D9
:1050D00041F82200FFE701B07047000081B0009066
:1050E0000098002811D4FFE7009901F01F02012069
:1050F00090404A094EF28011CEF2000141F82200A0
:10510000BFF34F8FBFF36F8FFFE701B07047000011
:1051100081B000900098002811D4FFE7009901F0B9
:105120001F02012090404A094EF28011CEF2000188
:1051300041F82200BFF34F8FBFF36F8FFFE701B03D
:105140007047000081B000900098002811D4FFE75C
:10515000009901F01F02012090404A094EF280118F
:10516000CEF2000141F82200BFF34F8FBFF36F8FE3
:10517000FFE701B07047000081B000900098002860
:105180000DD4FFE7009901F01F02012090404A0969
:105190004EF20011CEF2000141F82200FFE701B00B
:1051A0007047000081B00090009800280DD4FFE700
:1051B000009901F01F02012090404A094EF20011AF
:1051C000CEF2000141F82200FFE701B07047000075
:1051D00082B0019000910198002808D4FFE7009860
:1051E00001994EF20042CEF20002885409E0009884
:1051F000019901F00F014EF61452CEF200028854CC
:10520000FFE702B07047000082B001900091019862
:10521000002808D4FFE7009801994EF20042CEF230
:105220000002885409E00098019901F00F014EF640
:105230001452CEF200028854FFE702B0704700001B
:1052400080B584B04EF20000CEF201000068C003C9
:10525000002833D4FFE74EF68451CEF2000100203F
:105260000860BFF34F8F4EF68050CEF2000000680A
:1052700003900398C0F34E300290FFE70398C0F309
:10528000C9000190FFE702990198800761F34D1072
:105290004EF66C71CEF2000108600198411E01913A
:1052A00008B12FF011C00298411E029108B12FF0F1
:1052B0001BC8BFF34F8FBFF36F8FFFE7BFF34F8F55
:1052C000BFF36F8F4EF65071CEF2000100200860E0
:1052D000BFF34F8FBFF36F8F02F086FD04B080BD28
:1052E00080B586B048F6D660C8F20000FBF732FB06
:1052F00048F6D810C8F2000001904068804702903C
:10530000029804909DF8100000F0010149F2DB10B2
:10531000C8F20000FBF71EFB0198016902208847D4
:105320000390039850B1FFE7039948F6FE30C8F2A6
:105330000000FBF70FFB0398059035E048F6D81006
:10534000C8F20000436A02200022114698470390E9
:10535000039840B1FFE7039949F26810C8F20000D2
:10536000FBF7F8FAFFE749F25F30C8F20000FBF7FD
:10537000F1FA49F2B340C8F20000FBF7EBFA49F248
:10538000B700C8F20000FBF7E5FA48F69A40C8F209
:105390000000FBF7DFFA49F27F20C8F20000FBF7BC
:1053A000D9FA00200590FFE7059806B080BD0000FF
:1053B00082B0019001980090042832D80099DFE86B
:1053C00001F0030C151E27004FF21001C4F6021164
:1053D000086840F40030086024E04FF21401C4F67D
:1053E0000211086840F4003008601BE04FF2180119
:1053F000C4F60211086840F40030086012E04FF271
:105400001C01C4F60211086840F40030086009E08D
:1054100047F21401C4F20031086840F4003008601B
:1054200000E0FFE702B0704780B584B04C200090E8
:1054300048F6FE40C8F20000FBF78CFA48F6A810C8
:10544000C8F200000169022088470290029850B11A
:10545000FFE7029948F6D930C8F20000FBF77AFA64
:1054600002980390E2E048F6A810C8F20000826AB1
:105470000220012190470290029850B1FFE7029963
:1054800048F6B030C8F20000FBF764FA02980390C7
:10549000CCE048F6F760C8F20000FBF75BFA0120A9
:1054A0008DF8060081208DF8070048F6A810C8F294
:1054B0000000D0F814C000980DF10601022200236C
:1054C000E0470290029840B1FFE7029948F6A160D8
:1054D000C8F20000FBF73EFAFFE7642000F0AAF8EC
:1054E00002228DF8062000238DF8073048F6A81018
:1054F000C8F20000D0F814C000980DF10601E04792
:105500000290029840B1FFE7029948F66460C8F241
:105510000000FBF71FFAFFE7322000F08BF8242091
:105520008DF80600D0208DF8070048F6A810C8F2C4
:105530000000D0F814C000980DF1060102220023EB
:10554000E0470290029840B1FFE7029948F6AB505D
:10555000C8F20000FBF7FEF9FFE70A208DF806000D
:1055600000238DF8073048F6A810C8F20000D0F8E4
:1055700014C000980DF106010222E0470290029843
:1055800040B1FFE7029948F6E950C8F20000FBF786
:10559000E1F9FFE709208DF8060040208DF80700AB
:1055A00048F6A810C8F20000D0F814C000980DF119
:1055B000060102220023E0470290029840B1FFE773
:1055C000029948F62660C8F20000FBF7C3F9FFE72E
:1055D00049F23400C8F20000FBF7BCF9009948F624
:1055E000DF40C8F20000FBF7B5F948F67E40C8F28C
:1055F0000000FBF7AFF948F61030C8F20000FBF7E7
:10560000A9F949F29E40C8F20000FBF7A3F949F25C
:10561000F910C8F20000FBF79DF949F29C20C8F28E
:105620000000FBF797F900200390FFE7039804B010
:1056300080BD000082B0019001984FF47A71484318
:105640000090FFE700980138009008B1FFE7F9E704
:1056500002B0704781B000900098042809D1FFE79C
:1056600047F21001C4F20031086820F400500860CD
:10567000FFE701B07047000082B0019001980090F0
:10568000042832D80099DFE801F0030C151E27002A
:105690004FF21001C4F60211086820F4805008602F
:1056A00024E04FF21401C4F60211086820F480507F
:1056B00008601BE04FF21801C4F60211086820F4DC
:1056C0008050086012E04FF21C01C4F60211086815
:1056D00020F48050086009E047F21401C4F2003160
:1056E000086820F48050086000E0FFE702B07047CF
:1056F00082B0019001980090042832D80099DFE828
:1057000001F0030C151E27004FF21001C4F6021120
:10571000086820F48010086024E04FF21401C4F6F9
:105720000211086820F4801008601BE04FF2180195
:10573000C4F60211086820F48010086012E04FF2ED
:105740001C01C4F60211086820F48010086009E00A
:1057500047F21401C4F20031086820F48010086098
:1057600000E0FFE702B0704782B001908DF80310AF
:105770009DF80310012088400199C86202B070476B
:1057800081B00090009801680120087001B0704756
:1057900081B000900098D0F8000D00F0010001B039
:1057A0007047000082B001908DF803109DF803103F
:1057B000012000FA01F20199086A9043086202B0E0
:1057C0007047000083B00290019100920198029905
:1057D000C1F8080D00980299C1F80C0D029900203B
:1057E000C1F8040D03B0704782B001908DF803102A
:1057F0000198406B9DF80310C84000F0010002B012
:105800007047000082B001908DF8031001989DF858
:10581000031000EBC100D0F8000100F00F0002B04F
:105820007047000084B003908DF80B10039A9DF828
:105830000B00B02110FB012001900198009000980E
:10584000083004B07047000084B003908DF80B104E
:10585000039A9DF80B00B02110FB012001900198E4
:1058600000900098407904B07047000081B000902B
:105870000098006B00F0010001B070474FF200018A
:10588000C4F60211086840F08040086070470000CC
:105890004FF20001C4F60211086840F000400860B1
:1058A0007047000081B000900098042809D1FFE7FC
:1058B00047F21001C4F20031086840F4005008605B
:1058C000FFE701B07047000082B00190019800909E
:1058D000042832D80099DFE801F0030C151E2700D8
:1058E0004FF21001C4F60211086840F480500860BD
:1058F00024E04FF21401C4F60211086840F480500D
:1059000008601BE04FF21801C4F60211086840F469
:105910008050086012E04FF21C01C4F602110868C2
:1059200040F48050086009E047F21401C4F20031ED
:10593000086840F48050086000E0FFE702B070475C
:1059400082B0019001980090042832D80099DFE8D5
:1059500001F0030C151E27004FF21001C4F60211CE
:10596000086840F48010086024E04FF21401C4F687
:105970000211086840F4801008601BE04FF2180123
:10598000C4F60211086840F48010086012E04FF27B
:105990001C01C4F60211086840F48010086009E098
:1059A00047F21401C4F20031086840F48010086026
:1059B00000E0FFE702B0704780B5FEF769F880BDF0
:1059C00080B584B003908DF80B1000208DF80A008C
:1059D0004FF6FF70ADF808009DF80B0003990968B9
:1059E00081F82F00FFE70398006890F82F008DF8EA
:1059F0000A00642002F000FAFFE79DF80A10002078
:105A0000012901900AD1FFE7BDF80800411EADF859
:105A1000081000285FEA0F900190FFE70198C00787
:105A200008B12FF021C0002004B080BD81B00090EB
:105A30000098006C01B0704781B000900099002080
:105A4000C866FFE70098D0F89C00C00708B1FFE7E0
:105A5000F8E701B07047000081B000900099002085
:105A6000C866FFE70098D0F89C00C00708B1FFE7C0
:105A7000F8E701B07047000081B000900099012064
:105A8000C866FFE70098D0F89C00C00708B9FFE798
:105A9000F8E701B07047000081B000900099012044
:105AA000C866FFE70098D0F89C00C00708B9FFE778
:105AB000F8E701B07047000081B000900098D0F87E
:105AC000880000F0010001B07047000082B0019032
:105AD0000091009A0199086B9043086302B07047E7
:105AE00082B001900091009A0199086B904308637D
:105AF00002B0704784B00390029100200090039898
:105B0000406B01909DF804004006002844D5FFE753
:105B10000398D0F8800001909DF80500C006002889
:105B200003D5FFE70120009032E09DF80400400714
:105B300018B1FFE70220009029E09DF8040000075B
:105B4000002803D5FFE7032000901FE09DF8050023
:105B50004007002803D5FFE70820009015E09DF8D6
:105B600004004006002803D5FFE7092000900BE061
:105B70009DF80500C00718B1FFE70A20009002E079
:105B800006200090FFE7FFE7FFE7FFE7FFE7FFE7FB
:105B90000398406D01901EE09DF804000007002866
:105BA00008D5FFE70299486A013048620398C06C43
:105BB0000190FFE79DF80400800758B1FFE70299C4
:105BC000886A013088620398806C01900398406C69
:105BD0000190FFE7FFE7009804B0704781B00090A4
:105BE00000980068C0F3401001B0704780B582B0E3
:105BF0000190019840F25721FFF768FF02B080BD85
:105C000080B582B00190019840F25721FFF768FFFC
:105C100002B080BD80B582B0019001984FF416713A
:105C2000FFF754FF02B080BD80B582B001900198AB
:105C30004FF41671FFF754FF02B080BD81B00090A1
:105C40000099086840F02000086001B0704700002B
:105C500080B582B00190019840F2572100F054FFC6
:105C600002B080BD80B582B0019001984FF41671EA
:105C700000F04AFF02B080BD80B584B0039002916D
:105C80000020009001900398FFF7E6FE009803992A
:105C9000086302986FF39F20039948606120019088
:105CA0000198039908600398FFF7F6FE04B080BDE1
:105CB00080B586B0059004910020ADF80A008DF8FB
:105CC00009000598C06A03909DF80C004006002862
:105CD00007D5FFE705980499FFF70CFF0499C86200
:105CE000FFE70598006C0498C06A002853D0FFE7CE
:105CF00041F6B211C2F20001012008700498C06A96
:105D0000012806D1FFE70499886B40F040008863C2
:105D10003BE00498C06A022806D1FFE70499886B2B
:105D200040F0100088632FE00498C06A032806D171
:105D3000FFE70499886B40F00200886323E0049831
:105D4000C06A092806D1FFE70499886B40F4007007
:105D5000886317E00498C06A0A2806D1FFE704990F
:105D6000886B40F4806088630BE00498C06A062862
:105D700006D1FFE70499886B40F080008863FFE755
:105D8000FFE7FFE7FFE7FFE7FFE70598406D0499AE
:105D90000020C86240E104980069002800F02A81D0
:105DA000FFE79DF80C00C006002867D5FFE70498C0
:105DB00090F83C00C00700B3FFE7FFE7059800F04C
:105DC0009BFEC8B1FFE7049B5868D9684A1CDA609B
:105DD000405CADF80A00BDF80A0005990861049816
:105DE000C06804998968884205D3FFE704990020B8
:105DF00081F83C0000E0E1E7FFE7FFE74FF4807047
:105E0000ADF80A000499C8690130C861049949696C
:105E1000884210D3FFE704980278BDF80A1041F4D5
:105E20000070D207002A18BF0846ADF80A0001200A
:105E30008DF80900FFE7BDF80A0005990861FFE742
:105E4000059800F059FE01460020019031B1FFE7AE
:105E50009DF8090080F001000190FFE70198C0075C
:105E600008B12FF035C89DF80900C00728B1FFE739
:105E700005981021FFF734FEFFE7FFE79DF80C00BF
:105E80004007002835D5FFE7FFE7059800F012FA34
:105E900070B3FFE7059800F005FA049A116992695A
:105EA000885404998869013088610498806904994C
:105EB00008620498806904994969884217D3FFE70A
:105EC00004980078C00760B1FFE70598FFF798FED7
:105ED0000499002008630499886B40F001008863EE
:105EE00004E005980421FFF7FBFDFFE700E0CCE7A5
:105EF000FFE79DF80C00800728B1FFE70499886A46
